:020000040800F2
:10000000908F0020190200085D0D000839030008D8
:10001000590D000819080008C1120008000000006E
:10002000000000000000000000000000610D00085A
:10003000990800080000000087020008650D00080C
:1000400033020008330200083302000833020008BC
:1000500033020008330200083302000833020008AC
:10006000330200089D080008C50800083302000894
:100070003302000833020008510800083302000868
:10008000330200083302000833020008330200087C
:10009000B51200081D0800083302000833020008EA
:1000A000330200083302000833020008330200085C
:1000B000330200083302000833020008330200084C
:1000C000330200083302000833020008330200083C
:1000D000330200083112000833020008330200081E
:1000E0003302000833020008B91200083302000886
:1000F000330200083302000833020008330200080C
:1001000033020008330200083302000833020008FB
:1001100033020008330200083302000833020008EB
:10012000330200088908000833020008330200087F
:1001300000F002F800F060F80AA090E8000C824499
:100140008344AAF10107DA4501D100F055F8AFF276
:10015000090EBAE80F0013F0010F18BFFB1A43F0A5
:1001600001031847E8AA000008AB00000A444FF05A
:10017000000C10F8013B13F0070408BF10F8014B06
:100180001D1108BF10F8015B641E05D010F8016B4B
:10019000641E01F8016BF9D113F0080F1EBF10F8AF
:1001A000014BAD1C0C1B09D16D1E58BF01F801CBD2
:1001B000FAD505E014F8016B01F8016B6D1EF9D555
:1001C0009142D6D37047000000230024002500266A
:1001D000103A28BF78C1FBD8520728BF30C148BFAA
:1001E0000B6070471FB509F0B0FF9DE8030000F0F9
:1001F00011FA1FBD10B510BD00F047FA1146FFF708
:10020000F1FF00F0DFFA00F07FFA03B4FFF7F2FF2E
:1002100003BC00F0DDF900000948804709480047A9
:10022000FEE7FEE7FEE7FEE7FEE7FEE7FEE7FEE7A6
:10023000FEE7FEE704480549054A064B7047000003
:10024000190E00083101000890870020908F0020CF
:10025000908B0020908B0020EFF3108072B67047D7
:1002600080F310887047424A1368012B04D04FF086
:10027000010313603F4A10603F4A11603F484FF04E
:10028000805101607047EFF3108272B63848016800
:1002900051B34FF0000101603648016891B1EFF3AE
:1002A00009811EF0100F08BF21ED108B21E9F00F1E
:1002B0004FF000041EF0100F08BF012441F8044D58
:1002C000006801602C490968096808C9B1E8F00FA5
:1002D000002B18BFB1EC108B81F309884EF0100E83
:1002E000002B18BF2EF0100E82F310884EF0040E73
:1002F000704721490860EFF3148222F0040282F370
:1003000014881C494FF00000086019494FF00100A3
:1003100008601B481B49D0F8002041EA0201016037
:1003200016484FF08051016017480068006880F35C
:10033000088861B662B670471EF0040F0CBFEFF379
:100340000880EFF3098020E9F00F40F804ED40F851
:1003500004ED1EF0040F0CBF80F3088880F30988B9
:1003600000B506F0A1F85DF804EB4EF0040E7047FE
:100370007C870020F0840020F884002004ED00E059
:1003800020ED00E00000FFFF08ED00E0032A40F24E
:10039000308010F0030C00F0158011F8013BBCF127
:1003A000020F624498BF11F801CB00F8013B38BF3F
:1003B00011F8013BA2F1040298BF00F801CB38BF4D
:1003C00000F8013B11F0030300F02580083AC0F06B
:1003D000088051F8043B083A51F804CBA0E8081013
:1003E000F5E7121D5CBF51F8043B40F8043BAFF346
:1003F0000080D20724BF11F8013B11F801CB48BFA0
:1004000011F8012B24BF00F8013B00F801CB48BFD5
:1004100000F8012B704710B5203AC0F00B80B1E80E
:100420001850A0E81850B1E81850A0E81850203A29
:10043000BFF4F5AF5FEA027C24BFB1E81850A0E832
:10044000185044BF18C918C0BDE810405FEA827C4C
:1004500024BF51F8043B40F8043B08BF7047D20763
:1004600028BF31F8023B48BF11F8012B28BF20F804
:10047000023B48BF00F8012B704702F0FF0343EA3C
:10048000032242EA024200F002B84FF000020429BF
:10049000C0F0128010F0030C00F01B80CCF1040CB3
:1004A000BCF1020F18BF00F8012BA8BF20F8022BE7
:1004B000A1EB0C0100F00DB85FEAC17C24BF00F88D
:1004C000012B00F8012B48BF00F8012B70474FF0BB
:1004D000000200B5134694469646203922BFA0E894
:1004E0000C50A0E80C50B1F12001BFF4F7AF0907A0
:1004F00028BFA0E80C5048BF0CC05DF804EB890091
:1005000028BF40F8042B08BF704748BF20F8022BD3
:1005100011F0804F18BF00F8012B704770477047EB
:10052000704770B5064600F059F8056806F10B00F3
:1005300020F00704B4429CBF002070BD2B466A68BF
:10054000BAB11068A04210D304F1080188423CBF40
:100550005068586007D35168101941601168091B31
:10056000016058601460101D70BD13465268002A67
:10057000E7D12146284600F039F80028DED170BDC9
:1005800070B50446051F00F029F80068002C14BF60
:10059000446870BD002C18BFAC423CBF2046646864
:1005A000F8D301680A18AA4218BF456003D12A6827
:1005B00005461144016028684119A1421CBF6C60C6
:1005C00070BD6168696021680844286070BD0000E2
:1005D00001491820ABBEFEE7260002000048704724
:1005E000F0020020704770477047704738B50446E6
:1005F0000A4600206946AFF30080002808BF38BDD6
:1006000002460099204600F065F8012038BD01201F
:1006100000F088B8F8B5AFF30080054600200C461E
:10062000102000BF0646A819A0420DD932466946DF
:100630000020AFF30080070008BF00F073F80098B7
:10064000A04218BF0546C419FFF7C8FF056007465A
:10065000F01D20F007004619284600F00AF8B442C1
:1006600008BFF8BDA21B31463868BDE8F84000F06D
:1006700031B800210160C0E90110704710207047B7
:1006800000487047E802002070477546FFF7F8FF02
:10069000AE4605006946534620F00700854618B06F
:1006A00020B5FFF7C7FDBDE820404FF000064FF032
:1006B00000074FF000084FF0000BAC46ACE8C00953
:1006C000ACE8C009ACE8C009ACE8C00921F00701FA
:1006D0008D467047034640688C46002818BF884204
:1006E0003CBF03464068F8D318681844884207D0D6
:1006F0000CF1030020F00700001D411A521A0146B8
:10070000081D0A60FFF73CBF10B50446AFF3008038
:100710002046BDE81040FFF778BD002801D0FFF764
:1007200057BF704710B500F01DF8BDE81040FFF747
:10073000F4BF70B505460C460A2000E06D1C00F0C1
:1007400039F835B128780028F8D102E0641C00F0AF
:1007500031F814B120780028F8D1BDE870400A20A3
:1007600000F028B810B5012805D0002103A0FFF73C
:10077000E0FF012010BD09A1F8E7000053494752EE
:10078000544D454D3A204F7574206F662068656161
:1007900070206D656D6F7279000000003A20486529
:1007A0006170206D656D6F727920636F7272757004
:1007B0007465640008B569468DF800000320ABBE7F
:1007C00008BD000080B582B0FFF746FD05F036FB9E
:1007D00006F0BAFD06F064FF06F0B4FE0A200090B1
:1007E0004AF6344045F2BD414FF0140CC0F600000B
:1007F000C0F6000100224FF48073CDF804C006F06B
:10080000C5FF07F011FA06F053FF07F037F906F0BD
:100810002FFF002002B080BDFEE70000B0B546F219
:100820000044C4F200048421C0F20101204602F019
:1008300033FF40F25435C2F2000528680121426FAF
:10084000204602F031FFE869BDE8B04006F0DABCAE
:10085000B0B540F25434C2F2000425680222E868C0
:10086000297C03F09FF9002808BFB0BDE868297C07
:1008700003F0E6F8E868297C012203F08BF9A06810
:10088000BDE8B04006F0BEBC40F28030C2F20000CD
:10089000006801F0CDBF00007047000080B508205F
:1008A00003F0EAF9002808BF80BD082003F0DEF954
:1008B00040F20C40C2F200000068BDE8804006F043
:1008C000A1BC000080B5102003F0D6F9002808BFB5
:1008D00080BD102003F0CAF940F27430C2F200006B
:1008E0004068BDE8804006F08DBC00002DE9F04373
:1008F00042B1531E032B02F0030C05D20022BCF1BF
:10090000000F2ED1BDE8F08302F0FC0200F1080ECA
:1009100001F10809C2F1000800220025475909EB3E
:1009200005034FEA37474F510EEB050757F8047C94
:100930004C1923F8027C3B0C5EF805704619A38025
:100940003B0C29F80530F368043A4FEA33439045ED
:1009500005F110056781E360E0D15242BCF1000F60
:10096000D0D050F8223001EB82061F0CBCF1010FF1
:1009700021F822707380C5D0531C50F8237001EB0E
:1009800083053E0CBCF1020F21F823606F8008BF85
:10099000BDE8F083023250F8220001EB8207030C1D
:1009A00021F822307880BDE8F0830000F0B542B134
:1009B000531E032B02F0030C04D20022BCF1000FE3
:1009C00023D1F0BD02F0FC0200F1080E01F1080392
:1009D00054420022002500BF46595F194E510EEBCC
:1009E000050656F8046C043A47F8046C5EF8056096
:1009F00047195E51FE684F19944205F11005FE60DB
:100A0000EAD15242BCF1000FDBD050F82230BCF1E9
:100A1000010F41F82230D4D0531C50F82370BCF1A0
:100A2000020F41F8237008BFF0BD023250F82200D7
:100A300041F82200F0BD0000F0B542B1531E032B77
:100A400002F0030C04D20022BCF1000F1DD1F0BD56
:100A500002F0FC0200F10803C2F1000E00220024A3
:100A600005590E190D511D1955F8045C07197560CB
:100A70001D59043AB560FD68964504F11004F5600F
:100A8000EED15242BCF1000FE1D050F8223001EB20
:100A900082071E0A01F822307E701E0C1B0EBCF16C
:100AA000010FBE70FB70D2D0531C50F8237001EBC5
:100AB000830601F823703B0A73703B0CB3703B0E46
:100AC000BCF1020FF37008BFF0BD023250F82200F3
:100AD00001EB820301F82200010A5970010C000E9B
:100AE0009970D870F0BD0000F5EE401AF1EE10FAE2
:100AF00010D1B5EE402AF1EE10FA0BD1F5EE402AF6
:100B0000F1EE10FA06D190ED012A90ED023A90ED47
:100B1000034AADE021EEA13A22EE024A34EE033A56
:100B200022EEA24A33EE043A45F6DF1213EE101A13
:100B3000C5F63772A2EB610104EE101ABEEE005A40
:100B400023EE053A24EE046A26EE033AB7EE086A6D
:100B500033EE063A23EE043A23EE217A63EE021ACC
:100B600023EE226AD0ED002A90ED012A90ED034A8F
:100B700090ED023A64EE023A63EE224A73EEE43AF2
:100B800062EE824A63EE045A75EEA44A64EE045A99
:100B900062EEA22A35EE855A75EE222A40F28C3199
:100BA00022EEA15A64EE865A23EE866A62EE872A06
:100BB000C2F2000136EE626AD1ED002A24EE877A95
:100BC00063EEA11AF5EE402A35EE655AF1EE10FA01
:100BD00037EE617A32DDDFED5E1AD1ED002A65EE87
:100BE000213AD1ED014A63EEA22A74EEA22AC1EDA8
:100BF000012AD1ED002A66EE213AD1ED024A63EED8
:100C0000A22A74EEA22AC1ED022AD1ED002A67EED3
:100C1000211AD1ED033A61EEA21A73EEA11AC1EDC9
:100C2000031AD1ED011A31EE800AD1ED021AD1ED8D
:100C3000032A71EEA00A32EE811A03E000224A6014
:100C40008A60CA6040F29021C2F20001D1ED001A20
:100C500021EE855AD1ED001A35EE000A21EE865AB2
:100C600091ED006A75EE200A26EE075A35EE011A5C
:100C70009FED385A20EE050A20EE856A21EE051A0E
:100C800090ED005A22EE007A63EE060A64EE011A35
:100C900030EE877A65EE000A37EE217A63EE011AAC
:100CA00072EE200A70EEA10A64EE061A62EE013AB4
:100CB00025EE011A22EE062A70EEE10A65EE061A0A
:100CC00032EE011A64EE002A73EE211A31EE041A94
:100CD00023EE000A71EEE31A31EE400A71EEA21A19
:100CE00080ED030A20EEA02A20EE000A35EE477AB6
:100CF00021EEA13A32EE000A27EE071A30EE030A7F
:100D000030EE010A80ED007AC0ED010AC0ED021A52
:100D1000B1EEC00AB7EE001A81EE000A90ED001A9B
:100D200090ED012A90ED023A90ED034A21EE001A6F
:100D300022EE002A23EE003A24EE000A80ED001A8B
:100D400080ED012A80ED023A80ED030A704700BF72
:100D50006F12833A6F12033AFEE7000070470000FB
:100D60007047000080B505F093FC06F0F9FFBDE880
:100D7000804005F09BBC000041F20400C4F2020078
:100D8000016801F00C01082941F20021C0F27A014A
:100D90002CD10268D20305D440F6001CC0F23D0CF1
:100DA0000DE000BF826A0368520046F60042C0F2BE
:100DB000DC2258BF0A46C3F3404122FA01FC026814
:100DC00003681021C2F3834201EAD351114402683F
:100DD000202303EA5262114402220E2988BF012215
:100DE00011443D2988BF3F2101FB0CF140F2640210
:100DF000C2F200021160006803A3C0F30310185C84
:100E000021FA00F0106070470000000000000000B0
:100E1000010203040607080981B04EF68851CEF29C
:100E200000010A6841F2040042F47002C4F20200B8
:100E30000A6050F8041C41F0010140F8041C50F80D
:100E4000041C89070CD450F8041C89075CBF50F8B7
:100E5000041C5FEA817103D450F8041C8907EED5A5
:100E6000016841F08001016000210091009A4F2A41
:100E700018D800BF009A01320092009A4F2A11D868
:100E8000009A01320092009A4F2A0BD8009A013240
:100E90000092009A4F2A05D8009A01320092009AD7
:100EA000502AE7D3026842F0900202600091009954
:100EB0004F2917D800990131009100994F2911D875
:100EC00000990131009100994F290BD80099013107
:100ED000009100994F2905D800990131009100999E
:100EE0005029E7D301684FF6FF7221F0030101603A
:100EF00050F8041CCFF6F662114040F8041C4FF481
:100F00001F01416050F8041C21F4802140F8041CAA
:100F100000210160816250F8041C41F4803140F8E6
:100F2000041C4FF6FC7150F8042C92030ED450F8B8
:100F3000042C92035CBF50F8042C5FEA823205D483
:100F400021B150F8042C04399203ECD550F8041C5C
:100F5000890301D4FEE700BF826947F2040142F031
:100F60008052C4F20001826151F8042C4FF6FF73E5
:100F700042F4404241F8042C0268CBF2C373026091
:100F800002680260026842F480620260026822F431
:100F900040320260026842F48032026002681A4005
:100FA00002604EF6FC730268C0F2090303441A4360
:100FB000026050F8042C42F0807240F8042C50F883
:100FC000042C92010CD450F8042C92015CBF50F810
:100FD000042C5FEA821203D450F8042C9201EED55F
:100FE00051F8042C42F4803241F8042C0A68D203F0
:100FF00009D40A68D2035CBF0A685FEAC23202D42D
:101000000A68D203F2D551F8042C42F4003241F8B8
:10101000042C0A68920309D40A6892035CBF0A6828
:101020005FEA823202D40A689203F2D5016821F0A5
:1010300003010160016841F00201016001680907D4
:1010400009D4016809075CBF01685FEA017102D435
:1010500001680907F2D501B0704700002DE9F0439F
:10106000530808D05D1E032D03F0030C06D20022A6
:10107000BCF1000F35D1BDE8F08300BF7C2404EA49
:10108000520200F1080E01F10809C2F10008002225
:10109000002500BF4619475B74880EEB050344EA40
:1010A0000744B78833F8023C4C5143EA074309EB45
:1010B000050444F8043C3EF805307489043A44EAD7
:1010C0000343B489F6894F1949F8053046EA0443C9
:1010D000904505F11005FB60DCD15242BCF1000FD8
:1010E000C9D000EB820330F822705B88BCF1010F9D
:1010F00043EA074341F82230BDD0531C00EB83077D
:1011000030F823607F88BCF1020F47EA064741F8B8
:10111000237008BFBDE8F083023200EB820330F891
:1011200022005B8843EA004041F82200BDE8F083DA
:10113000B0B542B1531E032B02F0030C04D20022BF
:10114000BCF1000F1CD1B0BD02F0FC02A0F1100EEA
:10115000A1F11003544200225EF8105F043A43F8F4
:10116000105FDEF8045094425D60DEF808509D6028
:10117000DEF80C50DD60EFD15242BCF1000FE2D03E
:1011800050F82230BCF1010F41F82230DBD0531C63
:1011900050F82350BCF1020F41F8235008BFB0BDF6
:1011A000023250F8220041F82200B0BD70B55FEA6B
:1011B000920C09D0ACF10103032B0CF0030C05D207
:1011C0000022BCF1000F1CD170BD00BF3C2303EA1C
:1011D0009202C2F1000E0022002300BFC458C518BD
:1011E000CC506C68CE187460AC68043AB460EC689B
:1011F000964503F11003F460F0D15242BCF1000FA8
:10120000E2D050F82230BCF1010F41F82230DBD09F
:10121000531C50F82360BCF1020F41F8236008BF53
:1012200070BD023250F8220041F8220070BD00006B
:1012300070B540F25435C2F200052E6840F2053117
:10124000706840F20434C0F20301C0F2040407F0F5
:1012500041FF7068214607F047FF002808BF70BDB6
:101260007069317E02F0ECFB70684FF4417107F059
:1012700019FF7069317E02F0E9FCC0F1200083B2F1
:101280007081F06D3289316E934238BF1A46FFF794
:101290007DF8316E706806F119029142214608BF4F
:1012A00006F13902326607F015FFE868BDE87040C4
:1012B00005F0A8BF08F07ABA4FF4802002F048BDCC
:1012C000FEE7000040F20C44C2F2000420684FF038
:1012D000FF3105F0C1FFF9E7782001F047FD00F18B
:1012E000190101664AF27C21C0F6000101F10803F0
:1012F00043F60001C4F20101002240F2543501F529
:101300004846C0E91C22C2F200050424C0E90226B6
:101310000322286046610476C0E900310274084661
:1013200007F0B2FE40F28436C2F2000610E000BFC1
:101330002868B0F86510306849BA05F095FB0120BF
:1013400006F07CFA2868102200F1640101F086FAA8
:10135000E8684FF0FF3105F07FFF296848890428CD
:10136000F0D1084610F8642F302AEBD191F867408D
:10137000032102F055F88442E4D12C6894F865000A
:1013800018B994F866000428D2D02869022105F023
:1013900017FD0028CCD104F164012046042201F09D
:1013A00097FAA8684FF0FF3105F056FF286905F05D
:1013B000ADFCBDE7C02001F0D9FC40F2543540F24D
:1013C000840140F20002C2F20005C2F20001C2F242
:1013D0000002686008F0B0F9D5E90004D4E92C12E5
:1013E000896802670120884740F284360520C2F2EE
:1013F0000006A07008E000BF2868006F8188306890
:1014000049BA05F031FB00BF68694FF0FF3105F0C4
:1014100023FF68682A68D0F8B400416C106704297B
:10142000F2D184790330032101F0FAFF8442EBD139
:101430002868006F044614F8031F3029E4D10179AD
:1014400011B940790428D7D0A869022105F0B8FC69
:101450000028D1D1686881212246042307F0D4FFF7
:10146000A86905F053FCC7E78EB04FF600080A20C4
:10147000C0F6030801F07AFC4FF4407140F27C366C
:101480000027418003210124C2F200060770416059
:1014900004813060182001F069FC706004F0D4FB16
:1014A000D8F800004FF47F62316802EA101202F5AA
:1014B000407208704A80020C000E0A7148718871EF
:1014C00004F0D0FB756843F60040C4F20000ADF8AC
:1014D0003470CDE90B778DF82A70ADF8287000F5DF
:1014E0005041402200F5E43385E80F002C7407F0EA
:1014F000C5FAD5E90101016170680BA901F0F4FAA0
:101500000997D8F8000040F2743901900490D8F897
:10151000041009AD039105910846D8F80810C2F2ED
:10152000000902910691D8F80CA00846CDF81CA03D
:10153000D8F810004FF07E5B4FF00208089003E0EF
:101540003068407A00283FD1B06829464FF0FF321A
:1015500005F0C4F90998010A012919D00029EFD131
:1015600004F072FB9DF8240004282AD8DFE810F06C
:101570000801060018001E00240000BFD9F8000072
:10158000C0E91BB7C0E91D7704F06CFBDCE700BFC6
:10159000C0B2002800F048800128D5D1D6E000BFB5
:1015A0003068047204F05EFBCEE700BF306807725B
:1015B00004F058FBC8E700BF3068417980F8058027
:1015C000817104F04FFBBFE743F23220ADF82800F1
:1015D000706832218DF82A100AA9012201F09EF9C3
:1015E00009986FF0010101EB1021192900F2928096
:1015F000DFE801F00E40489090909090909090908D
:101600009090525A5E62687074787E84888C00BFB5
:10161000C0B2032800F27E80DFE800F0028A8E92DA
:10162000019820F0FF008EE04FF60000C0F60300A6
:1016300001680191049142680392059282680292C6
:101640000692D0F80CA0CDF81CA00169F0680891B2
:1016500006F04CF940F24830C2F20000006806F093
:1016600045F970680AA9012201F058F930684472FE
:101670006AE700BFC1B204294CD8019960F3174151
:1016800007E000BF00F0FE01092943D8019960F38B
:101690000F21019104913DE0039921F07F4141EA3E
:1016A00000600390059035E0039960F3174106E070
:1016B000039960F30F2102E0039960F3070103919E
:1016C000059127E0029921F07F4141EA00600290F4
:1016D00006901FE0029960F3174106E0029960F35B
:1016E0000F2102E0029960F307010291069111E0D7
:1016F0002AF07F4141EA006A0AE000BF60F3174A1E
:1017000006E000BF60F30F2A02E000BF60F3070AA3
:10171000CDF81CA0032006F091F870680AA90122F8
:10172000ADF828708DF82A7001F0F8F80CE700BFCA
:10173000019864F3070006E0019820F07F4002E082
:10174000019864F31F6001900490E3E704F07CFAD1
:1017500030680021417202F069F904AD2846042185
:1017600002F028F94FF60004C0F603040890204662
:10177000012102F0F3FA20462946052202F06CFE10
:1017800000F04CFF82B040F27C34C2F200042068CA
:10179000C07930B9642006F051F82068C07900287B
:1017A000F8D041F2883006F049F840F27435C2F2C0
:1017B000000501AC06F0CEFA019004F045FA286865
:1017C00000F1940191EC060A6C30FFF78DF904F0FA
:1017D00049FA2046012106F037F8EBE782B00020F5
:1017E0000190142006F02AF840F2743640F20044CA
:1017F000C2F20006C4F2000401AD00BF06F0AAFA6E
:101800003168019091ED180A084601F06FF9BCEEBD
:10181000C00A10EE102A2046032107F0B5FA284628
:10182000142106F011F8E9E788B040F2DC5006F028
:1018300005F840F27C37C2F20007386801220179CE
:10184000C07902FA01F530B9642005F0F7FF386875
:10185000C0790028F8D002AC40F2743B40F2543812
:101860009FEDAF8A9FEDAF9A601C1FFA85FA0026A4
:10187000C2F2000BC2F200080DF11C0901900AE04F
:10188000D8F8000021460E22002300F073FF4846DE
:10189000514605F0D9FF06F05DFA396807900A7ADB
:1018A000012A40F0D1800878012866D10396487952
:1018B0000296012822D000285ED140F26805DBF8AC
:1018C0000000C2F200052B686C30214602229847C6
:1018D0003968D8F8000049882246082300F00AFF3A
:1018E000DBF800002B6874302146022298473868E4
:1018F0004188D8F80000013189B239E0DBF80000F6
:101900000325B0F85A20B0F8583012BAB0F85C008D
:10191000120CADF80A20020A8DF80C201ABA8DF8C4
:101920000D008DF80E50120CD8F800004988ADF863
:1019300008202246082300F0DDFEDBF800008DF8C9
:101940000E50B0F85410B0F8522009BAB0F8560052
:10195000090CADF80A10010A8DF80C1011BA0A0C26
:1019600039688DF80D00D8F800004988ADF80820D6
:101970002246082300F0BEFE3968ADF818600596CF
:10198000CDE903664879029601281BD000285AD178
:10199000402040F268018DF80800DBF80000C2F238
:1019A00000010B6801996C300422984720461121F0
:1019B00001F036FD39688DF8190008781225D8BB7A
:1019C00033E000BFDBF80000B0F85810B0F85A2040
:1019D00009BA090CADF8091011BAB0F85C20090C6D
:1019E000ADF80B1011BAB0F85220090CADF80D107B
:1019F00011BAB0F85420090CB0F85600ADF80F1029
:101A000011BA090C00BAADF811104121000C8DF883
:101A10000810ADF8130020460D2101F001FD3968D2
:101A20008DF8150008780E2530B9D8F80000214649
:101A30002A46002300F082FED8F8000021462A46FC
:101A4000002300F097FE3968487902287FF41FAF21
:101A5000ADF81460CDE90366887902964871DBF829
:101A60000000422190ED1F0A90ED201A20EE080A96
:101A7000BDEEC00A8DF8081010EE101A09BA21EE5A
:101A8000080A90ED212A090CBDEEC00AADF8091034
:101A900010EE101A09BA22EE080A90ED223A090C4B
:101AA000BDEEC00AADF80B1010EE101A09BA23EE05
:101AB000080A090CBDEEC00AADF80D1010EE101AA0
:101AC00090ED230A09BA20EE080A090CBDEEC00AFF
:101AD000ADF80F1010EE101A90ED240A09BA20EE9E
:101AE000090ABDEEC00A10EE100A00BA090C000C7B
:101AF000ADF81110ADF8130020460D2101F090FC57
:101B000039688DF81500087800287FF4B9AED8F848
:101B1000000021460E22002300F010FEB0E600BFB8
:101B200000007A440000484486B0142001F01EF9F9
:101B300040F25436C2F2000631689FED558A9FED9F
:101B4000559A40F2843440F2743A46F20049C2F2A7
:101B50000004C2F2000A4FF0000BC4F2000948670B
:101B600004E000BF2068012104F07EFFF0694FF01F
:101B7000FF3105F071FB3068406FC07A032809D04F
:101B80000228EFD00128F1D12068002104F06CFF79
:101B9000ECE700BFDAF8000040F27C3790ED1F0A56
:101BA00090ED201A20EE080ABDEEC00A90ED212A21
:101BB00010EE100A21EE080AC2F20007BDEEC00ABC
:101BC000A0463C6810EE102A22EE080ABDEEC00ABC
:101BD0006488010A10EE105A8DF810000420130AD0
:101BE0002F0ACDE9014B08248DF80F10ADF8150030
:101BF000484601A9ADF80CB08DF80E408DF81130B3
:101C00008DF812208DF813708DF8145001F09AFDA4
:101C1000DAF8000040F27C3790ED220A90ED231AAA
:101C200020EE080ABDEEC00A90ED242A10EE100A3C
:101C300021EE080AC2F20007BDEEC00A3F6810EEAE
:101C4000102A22EE090ABDEEC00A7F88010A10EEB2
:101C5000105A8DF810000420130A2C0ACDE9017BDC
:101C600008278DF80F10ADF81500484601A9ADF80A
:101C70000CB08DF80E708DF811308DF812208DF8A3
:101C8000134044468DF8145001F05CFD6EE700BF30
:101C900000007A4400004844AC2001F067F8044694
:101CA0000020C4E91800A066C4F85200C4F8560029
:101CB000C4F85A0004F108003821FEF708FC4AF283
:101CC0007020C0F60000083020604FF07E50E066C3
:101CD00004F170003C21FEF7FAFB0020C4F224203E
:101CE00060600020C4F248304FF0804100220023A1
:101CF00004F1200CC4F2A002C4F240038CE80F00EF
:101D00004CF20000002140F27435C4F27940C4F274
:101D10009631C2F20005C4E90D012C6003F094FF76
:101D20004FF60400C0F6030001689FEDED1A0B1496
:101D300000EE103A42688068B8EEC00A2B6820EEC8
:101D4000010A09B283ED1F0A00EE101AB8EEC00AAC
:101D500020EE010A111483ED200A00EE101AB8EEED
:101D6000C00A20EE010A11B283ED210A00EE101A1A
:101D7000B8EEC00A20EE010A011483ED220A00EE3B
:101D8000101AB8EEC00A20EE010A00B283ED230A51
:101D900000EE100A9FEDD31AB8EEC00A20EE010A39
:101DA00083ED240A03F05EFF40F600412868C4F288
:101DB000010101F510520124C0E9102184640C6175
:101DC000006C06F05BFE286876214030002200F0AF
:101DD000B5FF286811214030012200F0AFFF052037
:101DE00005F02CFD28682D21403000F04DFF2868BB
:101DF00076214030002200F0A1FF28684F214030BA
:101E0000062200F09BFF286850214030062200F097
:101E100095FF28684E2140300F2200F08FFF286880
:101E20009FEDB18A90ED180AB4EE480A4030F1EE09
:101E300010FA0DDA00F03CFF142005F0FFFC2868D2
:101E400090ED180AB4EE480A4030F1EE10FAF1DBDA
:101E50007621002200F072FF286811214030012213
:101E600000F06CFF052005F0E9FC28682D214030CA
:101E700000F00AFF286876214030002200F05EFF63
:101E8000286812214030362200F058FF28684F2180
:101E90004030062200F052FF2868502140300622D0
:101EA00000F04CFF28684DF24E114AF25802C3F67A
:101EB0009C31C3F68B22C0E91912403051215622C1
:101EC00000F03CFF286852214030112200F036FF1C
:101ED0002868532140300D2200F030FF286863212C
:101EE0004030002200F02AFF2868642140300022A0
:101EF00000F024FF286865214030082200F01EFF12
:101F0000286866214030002200F018FF2868682108
:101F10004030002200F012FF286869214030002282
:101F200000F00CFF286876214030012200F006FF07
:101F300028680B214030A02200F000FF28680C2107
:101F400040300C2200F0FAFE28680D21403090222B
:101F500000F0F4FE28680E214030802200F0EEFEF2
:101F6000286876214030022200F0E8FE286803212C
:101F70004030182200F0E2FE286804214030902210
:101F800000F0DCFE286805214030802200F0D6FEFB
:101F9000286876214030002200F0D0FE28685121C8
:101FA0004030122200F0CAFE28685321403005223A
:101FB00000F0C4FE286852214030332200F0BEFEFB
:101FC000082001F053FE102001F050FE082001F01F
:101FD000B7FE102001F0B4FE2868762140300022C0
:101FE00000F0ACFE28684E2140300F2200F0A6FE23
:101FF00040F27C30C2F200000068C47168684FF0A3
:10200000FF3105F029F928682D21403000F03CFE11
:102010000007F3D52868403000F0D4FD03F014FE2B
:102020002868B0F9521090ED221A00EE101AB8EE9E
:10203000C00A31EE000A90ED191AB0F9541020EEE2
:10204000010A80ED280A00EE101A90ED235AB8EE2E
:10205000C00A35EE000AB0F9561020EE010A80EDF4
:10206000290A00EE101A90ED245AB8EEC00A35EE97
:10207000000AB0F9581020EE010A90ED1F3A80EDE9
:102080002A0A00EE101A90ED1A2AB8EEC00A33EEB2
:10209000000AB0F95A1020EE020A90ED204A80EDB5
:1020A000250A00EE101AB8EEC00A34EE000AB0F9A4
:1020B0005C1020EE020A80ED260A00EE101A90ED68
:1020C000211AB8EEC00A31EE000A20EE020A80EDB5
:1020D000270A03F0C7FD2868403000F0E9FD8DE7CE
:1020E0006F12833A0AD7A33A0000224282B04FF41B
:1020F0007A7005F0A3FB40F27C30C2F20000006869
:102100000125408800F5506005EB10105FFA80F95A
:10211000B9F1000F1AD040F2F837C2F200070024DC
:102120000DF1040805F016FE4E46019064203D7046
:1021300005F084FBC8203C7005F080FB013EF5D122
:10214000404641F2883105F07FFBEBE701AC00BF70
:1021500005F000FE0190204641F2883105F074FB45
:10216000F6E7000084B040F2483840F284374FF080
:102170000009C2F200080DF10C0BC2F2000741F297
:1021800088344FF0000A00260021CDF80C908DF81D
:102190000A90ADF8089010E040F284374FF0000943
:1021A000C2F200074FF40071386804F05DFC386833
:1021B00040F2011104F058FC019900296CD0022969
:1021C00000F0BB800129F8D140F27C30C2F200005F
:1021D000006801910178002000290CBF7820782147
:1021E0008DF8080040F28030C2F2000000688DF8DF
:1021F0000A1002A901228DF809904FF0010A00F09F
:102200008DFB05F0A7FD064605F0A4FD801B41F2FD
:1022100087318842C6D800254FF0010A4FF00009E7
:1022200008E000BF05F096FDDDF80CA0461FB81BC6
:10223000A0424DD205F08EFDD8F80810074608469A
:102240005946012204F04AFB0028F0D10398BAF164
:10225000010F4FEAD0710391E4D10028E2D45FFA74
:1022600089F0B0FA80F14FEA5119002818BF7820A0
:102270004FF0000108BF78218DF8080040F280304F
:10228000C2F2000000688DF80A1002A901228DF840
:10229000095000F043FBC5E7D8F8080059464FF055
:1022A000FF3204F01BFB0398BAF1010F05464FEA19
:1022B000D0716FF3DF4503914FF0000137D1002853
:1022C00035D4A81B40F2DC5188420FD901261CE00E
:1022D0005FEA09603FF460AF40F2843740F20121C9
:1022E0004FF00009C2F200075EE700BFC0087C287B
:1022F0004FF000011BD840F27C30C2F200000068B1
:10230000007810F0010012D0022638684FF4807176
:1023100004F0AAFB40F28030C2F20000006802A97B
:10232000012200F0FBFA642005F088FA3146DDF85E
:102330000CA02E4602297FF445AF019105F00AFD5D
:10234000064605F007FD801B41F287314FF0010A78
:10235000884254D84FF4806509E000BF05F0FAFCCC
:10236000DDF80CA0A0F10A06B81BA04240D205F08F
:10237000F1FCD8F80810074608465946012204F037
:10238000ADFA0028F0D10398BAF1010F4FEAD071ED
:102390000391E3D10028E1D440F20A4040F20A461A
:1023A000854238BF6E1C40F2803543F23220C2F2C3
:1023B0000005ADF808002868322102AC8DF80A103B
:1023C0002146012200F0AAFA052005F037FA286814
:1023D00021460122ADF808908DF80A9041F2883428
:1023E00000F09CFA012005F029FA3546B6E700BF57
:1023F00040F28437C2F20007B5F5806F04D1386827
:102400004FF4806102E000BF3868691E04F02CFBC5
:10241000052005F013FACAE682B040F28030C2F21D
:10242000000000210068E8468DF80210ADF80010A9
:102430004146012200F072FA9FED6D0B9FED6E9AFE
:102440009FED6EAA9FED6EBA9FED6ECA9FED6EDA9C
:102450009FED6FEA9FED70FA40F27C3B40F2F83A54
:10246000DFED6C9ADFED69AAC2F2000BF3EE0E8A83
:10247000C2F2000A56EC105B0DF1040911E000BF36
:1024800040F28030C2F2000000684146012200F0B4
:1024900045FA4846082105F0D7F9B0EE49AAB0EE52
:1024A000489A05F057FC39EE0B8AB4EE4D8AF1EEEE
:1024B00010FA019010DD39EE0E8A3AEE0C9AB4EE65
:1024C0004D9AF1EE10FA15DCB5EE409AF1EE10FAE5
:1024D000B8BF3AEE299A0FE0B5EE408AF1EE10FA55
:1024E000B8BF39EE2A8A3AEE0C9AB4EE4D9AF1EE64
:1024F00010FAE9DD3AEE0F9ADBF80000B0EE480A78
:10250000047800F04BFFB0EE40AA0CB3B0EE490ADD
:1025100000F0FEFE2AEE281A21EE000A30EE280A0C
:10252000BDEEC00A10EE100AB0EE480A8DF80000A9
:1025300000F034FFB0EE40AAB0EE490A00F02EFFE2
:102540002AEE281A21EE001AB0EE480A12E000BF67
:102550002AEE280A30EE280ABDEEC00A10EE100A54
:10256000B0EE480A8DF8000000F0D2FE20EE281AE6
:10257000B0EE490A31EE281ABDEEC11A11EE100A6A
:102580008DF8010000F0C4FE20EE280A30EE280A83
:102590009AF80000BDEEC00A10EE104A00288DF82F
:1025A00002403FF46DAF9DF800009DF8017007F008
:1025B0005CFB2A46334607F06BFB07F027FB8DF8E0
:1025C0000000384607F051FB2A46334607F060FB0F
:1025D00007F01CFB8DF80100204607F046FB2A4659
:1025E000334607F055FB07F011FB8DF8020047E773
:1025F000333333333333D33F00000000920A863F36
:10260000920A063CDB0F493CDB0FC940E052C9404F
:10261000D6CCC8C06374C94053ABC8C04EF60C508A
:10262000BFF34F8FCEF200000168042201F4E06195
:10263000C0F2FA5211430160BFF34F8F00BF00BFD9
:1026400000BF00BFFAE7000082B040F6004440F24D
:102650004836C4F20104012701ADC2F200060BE0C6
:1026600041F0004000270090B068009904F0FCF9A8
:1026700028460F2105F0E8F805F06CFB0190204694
:10268000102102F0D9FC8742F2D00D2005F0D6F8D7
:1026900005F060FB00902046102102F0CDFC00996F
:1026A0000028DDD021F0004000900127DCE7000089
:1026B000B0B50021C4F22421416000214CF2000495
:1026C0000025C4F24831002340F2000CC4F27944E2
:1026D000C4F2963500F120074FF08042C4F2A00307
:1026E000C4F2400C4FF0000E87E80E50C0E90D45D3
:1026F000B0BD0000002A18BF002B01D1704700BFF9
:1027000010B586B0002001AC082B28BF082301912A
:102710000290ADF80C0004F10B0011461A468DF83A
:102720000E30FDF733FE46F20040C4F200002146B1
:1027300001F008F806B0BDE81040704770B551B11F
:1027400040F25436C2F20006B0690C4619461546EE
:1027500004F036FB10B1012070BD00BF706881210C
:1027600022462B4606F050FEB06904F0CFFA002056
:1027700070BD0000F0B581B059B140F25437C2F2DB
:102780000007064638690D461946144604F018FB42
:1027900010B1012001B0F0BD30462946224600F0BC
:1027A00097F8B8684FF0FF3104F056FD386904F02F
:1027B000ADFA002001B0F0BD70B5044600680E46C9
:1027C0008021154606F08CF900281CBF012070BD41
:1027D000E068217C022201F0DDF9E068217C3246CC
:1027E00001F0FEF9E068217C2A4601F01DFAE0685C
:1027F000217C01F039F9002070BD0000B0B50D4614
:10280000044600BF2068022106F06AF90028F9D0CA
:102810002068294606F03CF92068012106F060F99D
:102820000028F9D0206806F02FF9C0B2B0BD000032
:1028300010B50446C068217C022201F0B3F958B1FA
:10284000E068217C01F0FCF8E068217C022201F0C4
:10285000A1F9012010BD00BF002010BD70B50446D5
:1028600040680D460521164606F014FC00281CBFE2
:1028700042F2102070BD2020202E28BF064660693D
:10288000217E2681E56501F0DBF86068042106F011
:1028900001FC606840F20431C0F2040106F01AFC49
:1028A000606806F097FB60684FF4417106F006FC23
:1028B0006069217E226E01F093F96069217E2022F9
:1028C00001F0B2F96069217E01F0CEF8002070BD00
:1028D00070B5044640680E460721154606F0DAFB3F
:1028E000A0B1E068217C022201F054F9E068217C6B
:1028F000324601F075F9E068217C2A4601F094F92E
:10290000E068217C01F0B0F8002070BD42F2102098
:1029100070BD000000BF00BF00BF7047002904BFAA
:1029200001207047B0B5144642692346054600F0C1
:102930000BF804EBC4006969013082B22846BDE897
:10294000B040FFF739BF00002DE9F047002B4FF0F2
:10295000000C00F0C38003EBC30EA1F1020902F1E9
:102960000408002499F902504FF4C046B5F1FF3F26
:10297000C8BF4FF480466F064FF4406758BF4FF40E
:1029800000673E44AF064FF4C07758BF4FF48077DE
:1029900028073E4405F010074FF00600374458BFA3
:1029A000042038446F074FF0300758BF202705F048
:1029B0000201ED0747EA801039444FF0060540F464
:1029C000006008BF042545EAC1012031F609151948
:1029D000400916556870A97019F9030F4FF4C041EA
:1029E000B0F1FF3FC8BF4FF4804146064FF4406648
:1029F00058BF4FF40066314486064FF4C07658BF86
:102A00004FF480760707314400F010064FF00607B8
:102A10000E4458BF04273E4447074FF0300758BFC5
:102A2000202747EA861646F4006A00F00206C0072F
:102A30004FF006003E4408BF042040EAC600C90922
:102A40002030E9704FEA5A1108EB040608F8041028
:102A5000707099F901004FF4C041B0F1FF3FC8BF59
:102A60004FF4804146064FF4406658BF4FF400666D
:102A7000314486064FF4C07658BF4FF4807607077E
:102A8000314400F010064FF006070E4458BF0427EB
:102A90003E4447074FF0300758BF202747EA8616C5
:102AA00046F4006A00F00206C0074FF006003E44FC
:102AB00008BF042040EAC600C90909342030A971C2
:102AC0004FEA5A11A645E97128727FF44BAF03EB28
:102AD000C30002F800C0BDE8F08700BF002002F884
:102AE00000C0BDE8F08700004161704790ED011A19
:102AF00090ED062A80ED030A90ED073A90ED084A22
:102B000031EE400A30EE421A80ED041A31EE432ACB
:102B100080ED071A24EE011A90ED094A90ED0C3A67
:102B200080ED020A80ED060AB0EEC05A24EE000ADB
:102B3000B4EE435AB0EE406A80ED052A9FED204A7C
:102B4000F1EE10FAA8BFB0EE446AB5EE403AF1EEED
:102B500010FA18BFB0EE460A90ED0A3A90ED0B6AF3
:102B600023EE022AB4EE465AF1EE10FAB0EE423AE3
:102B7000B5EE406AA8BFB0EE443AF1EE10FA18BFC5
:102B8000B0EE432A90ED0F4A30EE010A30EE040A0F
:102B900090ED0D1A90ED0E3A30EE020AB4EE410AB5
:102BA000F1EE10FAC8BFB0EE410AB4EE430AF1EEFE
:102BB00010FAB8BFB0EE430A80ED0F0A704700BFAD
:102BC000000000002DE9F04F85B004464068A16880
:102BD000416120469F21FFF711FE20460021FFF7AB
:102BE0000DFE049020460021FFF708FE03902046CA
:102BF0000021FFF703FE029020460021FFF7FEFDB3
:102C0000019020460021FFF7F9FD064620460021ED
:102C1000FFF7F4FD074620460021FFF7EFFD0546CC
:102C200020460021FFF7EAFD804620460021FFF7FD
:102C3000E5FD814620460021FFF7E0FD8246204663
:102C40000021FFF7DBFD834620460021FFF7D6FD7C
:102C5000D4E9011240EA0B200A61DDE90321A083D7
:102C600042EA01216182DDE9012142EA0121A182DA
:102C700047EA0621E18248EA052121834AEA09213F
:102C8000618305B0BDE8F08F10B504464068A268C6
:102C900041F0800142612046FFF7B0FD2046FF2150
:102CA000FFF7ACFDD4E901120A6110BD000000007D
:102CB000F0B581B004464068A168416120469D217D
:102CC000FFF79CFD20460021FFF798FD05462046B2
:102CD0000021FFF793FD40EA052000B200EE100A44
:102CE0009FED151AB8EEC00A20EE010AB0EE041AE4
:102CF000D4E9011230EE010A266A10EE100A0A61C8
:102D000007F0B2F9054630460F4607F0ADF99FEDE2
:102D1000080B53EC102B06F0BBFF2A463B4606F08F
:102D2000CDFE06F099FE206201B0F0BD00BF00BFED
:102D3000CDCCCCCCCCCCEC3FD8DF453AB0B50546B9
:102D400014464068AA6842612846FFF757FD2846A6
:102D50002146FFF753FDD5E901010161B0BD40F205
:102D60001C40C2F2000000687047000010B5044625
:102D7000002808BF012400BF2046FDF7D2FB002831
:102D800018BF10BDFFF7EBFF08B18047F4E7002044
:102D900010BD00004EF60C50BFF34F8FCEF2000076
:102DA0000168042201F4E061C0F2FA5211430160AB
:102DB000BFF34F8F00BF00BF00BF00BFFAE70000A6
:102DC000002804BF00207047C1B209B101200CE007
:102DD00010F47F4102D0090A092006E010F47F01B7
:102DE00007BF010E1920090C11204AF28822C0F6F3
:102DF0000002515C08447047B0B50446C07C40B145
:102E0000D4F8B010E06CCB6A00210022002598476E
:102E1000E574A078032805D1D4F8AC00016909B1A4
:102E200020468847207D03280AD001280AD1D4F8FB
:102E3000B0000421826A217520460021904701E0FC
:102E4000002020756078002808BFB0BDD4F8B0001D
:102E5000C1682046884700206070B0BDB0B5044608
:102E600080780D46032805D1D4F8AC00416909B13A
:102E700020468847207D04280ED0022818BFB0BD08
:102E8000D4F8B0100325E06CCB6A00210022257530
:102E9000BDE8B040184700BF05EB450004EB8000DB
:102EA0000021C0E907112175B0BD0000B0B504468E
:102EB000D0F8B00004F10B05036B28460021002276
:102EC0009847082813D1287800F06000402809D0DE
:102ED000202815D058B92046294606F091FD30B972
:102EE00014E000BF2046294606F0B4FD70B1D4F8C6
:102EF000B0000021426B2046BDE8B040104700BF43
:102F00002046294606F020F90028F0D1B4F8110037
:102F100070B194F90B00B0F1FF3F15DDD4F8B000AB
:102F20000222836A204600212275BDE8B04018477E
:102F3000D4F8B0100325E06CCB6A0021002225757F
:102F4000BDE8B040184700BF0125E26CB4F850302E
:102F5000204600212575BDE8B04006F055BA0000B6
:102F600070B50C460978054601F0030102290BD023
:102F7000D9B9A87800F0FE00022816D1608801288F
:102F800013D10020287270BDA188A87803284FF0C3
:102F9000010008BF11F07C0200D070BD608820B92C
:102FA00041F08000C0B2802802D1012070BD00BF76
:102FB000D5F8B000CEB2C26B284631469047002803
:102FC000F3D0D5F8B0003146826B28469047D5F84B
:102FD000AC002146C26828469047002070BD000022
:102FE0008178032908D002290ED1017800291CBF5D
:102FF0000120704702E000BF017829B14FF00111B4
:10300000C0E913010020704701207047B0B50D469C
:103010000978044601F00301012923D0002943D196
:1030200069884FF0FF3000EB11220E2A4FF00100AB
:103030001ED8DFE802F00921251D1D1D1D1D1D1DC7
:103040001D1D1D1D2F0000BFD4F8A80000680178C9
:10305000E064A4F85010E988402904BF0820A4F8CF
:10306000500021E0D4F8AC002946C26820469047C1
:10307000B4F85020EAB9B0BDD4F8A80040680DE01B
:10308000C8B2EE2810D8D4F8A810C96851F82000AA
:10309000017806E0D4F8A800806808B1418800E013
:1030A0000021A4F85010E0640120B4F85020002A58
:1030B000E1D0E988002908BFB0BDB4F811008A4208
:1030C00038BF11468142A4F8501006D2B4F8480027
:1030D000B1FBF0F202FB101010B10020B0BD00BF38
:1030E0000120E0740020B0BD8278032A01D1097963
:1030F00011B10120704700BFD0F8AC104FF00112A1
:103100000131C0E913120020704700000B788A8853
:1031100003F0030102291DD0012911D031BB8178B0
:1031200001F0FE0102291CBF012070470279017ADB
:10313000002A18BF0122002918BF911C20E000BFFF
:10314000817803294FF0010101D1D2B2EAB10846DA
:10315000704700BF8178032908D1D1B2802907D2F6
:1031600001EB410100EB81011A3108E001207047B9
:1031700002F07F0101EB410100EB81014A31097846
:1031800040F22042C2F20002117040F22041C2F22D
:1031900000014FF00212C0E91312002108467047E7
:1031A000012070478A8842B9CA8832B9897801F00B
:1031B0007F0141708278032A02D10120704700BF4D
:1031C0000222002908BF01228270002070470000FF
:1031D00070B50446488840F22246C2F2000610F05C
:1031E000FE0F307002D0012070BD00BFA17803290E
:1031F00010D00229F7D1010620D0D4F8AC104A68CB
:10320000C1B220469047307820700320A070002083
:1032100070BD00BF010613D02178C0B2814204BF47
:10322000002070BDD4F8AC00826820469047D4F8E6
:10323000AC0031784268204621709047002070BD74
:10324000D4F8AC00002182682046002590473078F1
:1032500020700220A070284670BD0000002070473A
:1032600070B50D460978044601F0030102290FD01C
:10327000F9B9A07800F0FE0002281AD16888012868
:103280004FF0010018BF70BD2072002070BD00BF5C
:10329000A988A07803284FF0010008BF11F07C0234
:1032A00000D070BD688820B941F08000C0B280288D
:1032B00002D1012070BD00BFD4F8B000CEB2C26B05
:1032C0002046314690470028F3D0D4F8B00031466C
:1032D000426B20469047D4F8AC002946C26820468D
:1032E0009047002070BD000080B58278032A01D18C
:1032F0000A790AB1012080BDD0F8AC208B78D2F8D1
:103300000CC05370E047002080BD000000207047D3
:103310009FED1F1A9FED1F2A20EE010AB5EE001A3D
:1033200030EE010ABDEEC01A11EE100AB5EE400AE9
:10333000F1EE10FAB8BF013801EE100AB8EEC11A6A
:1033400030EE410A20EE020ABDEEC01A11EE100A5C
:10335000410A9FED112A4AF29031C0F6000130EE89
:10336000021A1CBF0020B0EE410A01EB800101EE01
:10337000100A91ED002A91ED013AB8EE411A30EEB3
:10338000410A33EE421A21EE000A30EE020A70477B
:1033900083F9223E00000044000000C49FED1D1A86
:1033A0009FED1D2A20EE010ABDEEC01A11EE100A93
:1033B000B5EE400AF1EE10FAB8BF013801EE100A7E
:1033C000B8EEC11A30EE410A20EE020ABDEEC01A74
:1033D00011EE100A410A9FED112A4AF29031C0F60F
:1033E000000130EE021A1CBF0020B0EE410A01EBD2
:1033F000800101EE100A91ED002A91ED013AB8EE3C
:10340000411A30EE410A33EE421A21EE000A30EE44
:10341000020A704783F9223E00000044000000C405
:10342000B0B559B14A1ED2B2032A4AF26E1201F067
:10343000030CC0F6000205D200211CE00021C8B236
:10344000B0BD00BF01F0FC0E0021002310F8044BBA
:10345000C9B2614010F8035C515C10F8024C69403D
:10346000515C10F8015C6140515C04336940515C6F
:10347000DCB27445EAD1BCF1000F10D00378BCF186
:10348000010F81EA0301515C09D04378BCF1020FBE
:1034900081EA0301515C02D080784840115CC8B2D7
:1034A000B0BD000046F20041C4F20001884218BFDE
:1034B000704780B540F2194002F096FB40F2194087
:1034C000BDE8804002F080BBB0B546F20061C4F2B6
:1034D000000144890A684FF0010C42F001020A60C1
:1034E000CB690CFA04F5AB43CB61C3896FEA050CD9
:1034F000012B11D02BBBCB6803EA0C03CB60B0F8D7
:1035000006E0438843EA0E434FEAC40E01EBC404CD
:10351000236403460EE000BFCB682B43CB60B0F8BA
:1035200000E0438843EA0E434FEAC40E01EBC404B3
:103530002364831D84881B8843EA044301EB0E0443
:10354000636483894C68002B44EA050208BF04EADF
:103550000C024A6002894B69002A43EA050408BF4D
:1035600003EA0C044C61007C012802D1C86928439D
:10357000C861086820F001000860B0BD10B502689D
:1035800040F2040C22F0020202600368CFF6FF7CD6
:1035900043F00103036063464268D20704BF4268F8
:1035A0005FEAC2720AD14268D20704BF42685FEA8A
:1035B000C27203D1002B03F10403EDD14268D2079C
:1035C00004BF002010BD0A784B7891F802E0CC7857
:1035D000920763F319620EF00F0342EA034204F00C
:1035E00007034C8942EA0352631E6FF39F231A4478
:1035F000C2610A790368012A23F0800308BF80337F
:1036000003604A790368012A23F0400308BF40336E
:1036100003608A790368012A23F0200308BF20335E
:103620000360CA790368012A23F0100318BF10331E
:1036300003600A7A0368012A23F0080318BF0833DD
:103640000360497A0268012922F0040208BF0432AB
:103650000260016821F0010101604168C90715D0CD
:103660004168C9071CBF41685FEAC1710ED042685A
:10367000BCF1000F614618BF0121D20704D0BCF194
:10368000000F0CF1040CE8D1084610BD012010BD5C
:103690004269114341617047C1F38412012303FA67
:1036A00002F2090B0A50704780B500EB011EDEF8EC
:1036B000B0C11CF004031372DEF8B0C119BF4FEAA9
:1036C000DC0353604FEA5C531360DEF8B03100292D
:1036D00003F002035372DEF8B4314FEA1323D374BC
:1036E000DEF8B43103F00F039372DEF8B831D37211
:1036F000DEF8B8314FEA13231373DEF8B8314FEA1E
:1037000013435373DEF8B8314FEA13639373DEF853
:10371000BC31D373DEF8BC314FEA13231374DEF8E7
:10372000BC314FEA13435374DEF8BC314FEA1363E4
:1037300093744FF0100208BF0C22115841F0200181
:10374000115080BD10B50246806840010AD49068CF
:10375000000109D49068C0005CBF032010BD0220A6
:1037600003E000BF002000E0012002EB0012D2F8CD
:10377000803103F00103C2F8803191F808C0BCF138
:10378000000F03D04B684CEAC30C02E00B684FEA11
:10379000435C4B7A91F80AE0D2F8804143EA0C038B
:1037A0002343C2F88031D2F8843123F00F03C2F8EA
:1037B0008431D2F8843143EA0E03C2F88431D1F85F
:1037C0000B30C2F88831D1F80F10C2F88C11D2F842
:1037D000801141F00101C2F8801110BD81B10328B0
:1037E00010D8DFE800F003111B2300BF0020C0F257
:1037F000FF308860002048604FF400300860704758
:10380000FEE700BFFEE700BF00204FF480320874DF
:10381000CA60086048608860704700BF0020C1F837
:103820000F00C1E90000C1E9020070470020C1E9B2
:103830000000C1E90200086170470000D0F8AC1038
:103840000A78FF2A06D0D0F8B400012282700270F4
:10385000FF2008700020704701EB410200EB82025C
:10386000B2F85230B2F84820934205D101F07F01FE
:103870000022002305F0C8BDD0F8B40040F20111C9
:103880000180704780B501EB410100EB8101D0F868
:10389000B420498C012393705164033203214023E7
:1038A00005F05AFD40F26830C2F200000068BDE841
:1038B000804003F0A7BC000010B50446D0F8B0006B
:1038C0008121426A20469047D4F8B0000321426A21
:1038D00020469047D4F8B0008221426A20469047A3
:1038E000002010BDF0B581B00446D0F8B00040F221
:1038F0000006056AC2F2000606F15C0320460021BC
:103900004FF4A0720027A847D4F8B00006F1550381
:10391000056A204600214FF48072A847D4F8B00011
:1039200006F14503056A20460021C022A847D6E9D2
:1039300006014023C4F88C0040F22440C4F8A010D3
:10394000C2F2000040F2011101804FF4E131C0E900
:10395000117108218770A0F84C7080F84E10C4F8DF
:10396000B400C21C2046032105F0F6FC002001B083
:10397000F0BD00004B78222B19D0D0F8B420212BB9
:1039800010D0202B1CBF01207047C988D0F8ACC0D4
:103990004832018400212023C261418408468CF80A
:1039A0000030704702F148010722C0E913120020DD
:1039B0007047000010B543F20002C4F2020241B1A8
:1039C0004B1E032B01F0030C06D20021BCF1000FAB
:1039D0001AD1106810BD00BF21F00301A0F110033F
:1039E000C1F1000E002100BF53F8104F04391460DC
:1039F0005C688E4514609C681460DC681460F3D1C8
:103A00004942BCF1000FE4D050F82130BCF1010F65
:103A10001360DED000EB81004168BCF1020F116041
:103A20001CBF80681060106810BD000043F20800E1
:103A3000C4F20200016841F001010160704700001A
:103A400040F20042C4F20202904203D1052901D3A0
:103A5000FEE700BF01EB810100EB8100816821F0EE
:103A6000010181607047000040F20042C4F202028E
:103A7000904203D1052901D3FEE700BF01EB81018C
:103A800000EB8100816841F0010181607047000016
:103A900040F20042C4F20202904203D1052901D350
:103AA000FEE700BF01EB810100EB8100816821F09E
:103AB000200181607047000040F20042C4F202021F
:103AC000904203D1052901D3FEE700BF01EB81023B
:103AD00000EB82029368890023F0010393600023C6
:103AE0009360D360136153610F22436802FA01F1BE
:103AF000194341607047000040F20043C4F20203E2
:103B0000984203D1052901D3FEE700BF80B51368B1
:103B100001EB810100EB8100036191684161118A31
:103B2000C1608168536821F47C5CD168D2F814E0EC
:103B300043EA0C03194341EA0E018160117E836858
:103B4000012923F0400308BF40338360517E83681E
:103B5000012923F0800308BF80338360917E82684F
:103B6000002922F0100218BF1032826080BD0000D0
:103B700040F20043C4F20203984203D1052901D365
:103B8000FEE700BF01EB810100EB8100816811437A
:103B9000816070478900436802FA01F1194341606E
:103BA00070470000082A19D80123934013F48A7F34
:103BB00014D08B0001EB8101D0F800C000EB810034
:103BC000806802FA03F31CEA030100EA020018BF4E
:103BD0000121002818BF012008407047FEE70000BF
:103BE00040F20043C4F20203984203D1052901D3F5
:103BF000FEE700BF01EB810100EB810042617047ED
:103C000040F20042C4F20202904203D1052901D3DE
:103C1000FEE700BF01EB810100EB8100816821F428
:103C2000804181607047000040F20043C4F202030B
:103C3000984203D1052901D3FEE700BF01EB8101C2
:103C400092B200EB8100C2607047000040F2004277
:103C5000C4F20202904203D1052901D3FEE700BF5E
:103C600001EB810100EB8100C068704740F2144114
:103C7000C4F201010860704740F21441C4F201012E
:103C80000968084018BF01207047000040F2084C46
:103C9000C4F2010C5CF8083C012923EA00034CF84B
:103CA000083C5CF8043C23EA00034CF8043CDCF8D4
:103CB000003023EA0003CCF80030DCF8043023EABB
:103CC0000003CCF8043019D021B95CF8081C01437A
:103CD0004CF8081C022A18D0012A6FEA000119D0FA
:103CE000002A18BF7047DCF800201043CCF8000011
:103CF000DCF804000840CCF8040070475CF8041CB1
:103D000001434CF8041C022AE6D1DCF80010014300
:103D100003E000BFDCF800201140CCF80010DCF814
:103D200004100843CCF804007047000040F2004142
:103D3000C4F201010A6822EA00000860704700002E
:103D400040F20041C4F201010A6810430860704764
:103D500040F21441C4F2010108607047B0B5044656
:103D60004FF60000C0F6030084420AD30D4604EB70
:103D7000C1204FF6FF71CFF2FB7108440131884238
:103D800002D20120B0BD00BF00F0CEFB40F20530F2
:103D900000F024F84FF4417000F020F840F20230B7
:103DA00000F01CF8B5B100BF204600F03DF82046F9
:103DB00000F03AF840F2053000F010F84FF441708E
:103DC00000F00CF840F2023000F008F8013D04F574
:103DD0000064E9D100F012F80020B0BD42F2000307
:103DE00000F01F018009C4F202034FF0010CC25819
:103DF0000CFA01F11143C1507047000042F210006B
:103E0000C4F20200016841F0800101604FF2E071EC
:103E1000C1F6FF710988B1F5007F98BF7047016C4A
:103E200041F08001016470474FF2E071C1F6FF710B
:103E30000988B1F5007F40F285804FF6FF7140F2AE
:103E4000000CC0F60701CFF2010C42F20C02C4F2E2
:103E500002026346884280F06F811168C9071CBF67
:103E600011685FEAC17100F0DD811168C9071CBFEC
:103E700011685FEAC17100F0D5811168C9071CBFE4
:103E800011685FEAC17100F0CD811168C9071CBFDC
:103E900011685FEAC17100F0C5811168C9071CBFD4
:103EA00011685FEAC17100F0BD811168C9071CBFCC
:103EB00011685FEAC17100F0B5811168C9071CBFC4
:103EC00011685FEAC17100F0AD811168C9071CBFBC
:103ED00011685FEAC17100F0A5811168C9071CBFB4
:103EE00011685FEAC17100F09D811168C9071CBFAC
:103EF00011685FEAC17100F095811168C9071CBFA4
:103F000011685FEAC17100F08D811168C9071CBF9B
:103F100011685FEAC17100F085811168C9071CBF93
:103F200011685FEAC17100F07D811168C9071CBF8B
:103F300011685FEAC17100F075811C334FF0040114
:103F40008BD187E240F2000CCFF2010C42F20C025E
:103F5000C4F2020263461168C9071CBF11685FEA18
:103F6000C1715FD01168C9071CBF11685FEAC171D8
:103F700058D01168C9071CBF11685FEAC17151D0E0
:103F80001168C9071CBF11685FEAC1714AD0116886
:103F9000C9071CBF11685FEAC17143D01168C90726
:103FA0001CBF11685FEAC1713CD01168C9071CBF12
:103FB00011685FEAC17135D01168C9071CBF11686B
:103FC0005FEAC1712ED01168C9071CBF11685FEA92
:103FD000C17127D01168C9071CBF11685FEAC171A0
:103FE00020D01168C9071CBF11685FEAC17119D0E0
:103FF0001168C9071CBF11685FEAC17112D011684E
:10400000C9071CBF11685FEAC1710BD01168C907ED
:104010001CBF11685FEAC17104D01C334FF004016A
:1040200099D117E21168C90644BF0320704711688F
:10403000022303EA5101002940F00C82516841F04B
:10404000020151609060506840F04000506010687C
:10405000C0071CBF10685FEAC07000F06181106883
:10406000C0071CBF10685FEAC07000F0598110687B
:10407000C0071CBF10685FEAC07000F05181106873
:10408000C0071CBF10685FEAC07000F0498110686B
:10409000C0071CBF10685FEAC07000F04181106863
:1040A000C0071CBF10685FEAC07000F0398110685B
:1040B000C0071CBF10685FEAC07000F03181106853
:1040C000C0071CBF10685FEAC07000F0298110684B
:1040D000C0071CBF10685FEAC07000F02181106843
:1040E000C0071CBF10685FEAC07000F0198110683B
:1040F000C0071CBF10685FEAC07000F01181106833
:10410000C0071CBF10685FEAC07000F0098110682A
:10411000C0071CBF10685FEAC07000F00181106822
:10412000C0071CBF10685FEAC07000F0F9801CF186
:104130001C0C8CD1F0E000BF116CC9071CBF116CC6
:104140005FEAC17100F0F880116CC9071CBF116CE7
:104150005FEAC17100F0F080116CC9071CBF116CDF
:104160005FEAC17100F0E880116CC9071CBF116CD7
:104170005FEAC17100F0E080116CC9071CBF116CCF
:104180005FEAC17100F0D880116CC9071CBF116CC7
:104190005FEAC17100F0D080116CC9071CBF116CBF
:1041A0005FEAC17100F0C880116CC9071CBF116CB7
:1041B0005FEAC17100F0C080116CC9071CBF116CAF
:1041C0005FEAC17100F0B880116CC9071CBF116CA7
:1041D0005FEAC17100F0B080116CC9071CBF116C9F
:1041E0005FEAC17100F0A880116CC9071CBF116C97
:1041F0005FEAC17100F0A080116CC9071CBF116C8F
:104200005FEAC17100F09880116CC9071CBF116C86
:104210005FEAC17100F090801C334FF004018BD134
:1042200018E100BF1168C90644BF03207047116838
:10423000022303EA5101002940F00C81516841F04A
:10424000020151609060506840F04000506010687A
:10425000C0071CBF10685FEAC07061D01068C0075B
:104260001CBF10685FEAC0705AD01068C0071CBF3E
:1042700010685FEAC07053D01068C0071CBF106898
:104280005FEAC0704CD01068C0071CBF10685FEABE
:10429000C07045D01068C0071CBF10685FEAC070CE
:1042A0003ED01068C0071CBF10685FEAC07037D0EE
:1042B0001068C0071CBF10685FEAC07030D010687B
:1042C000C0071CBF10685FEAC07029D01068C00723
:1042D0001CBF10685FEAC07022D01068C0071CBF06
:1042E00010685FEAC0701BD01068C0071CBF106860
:1042F0005FEAC07014D01068C0071CBF10685FEA86
:10430000C0700DD01068C0071CBF10685FEAC07095
:1043100006D01CF11C0C9AD1101D042196E000BFA0
:10432000104650F8041BC90600F18F801168022264
:1043300002EA51018AE000BF116CC90644BF0320A4
:104340007047116C022303EA5101002940F082807A
:10435000516C41F00201516490641169890748BFB2
:104360009060506C40F040005064106CC0071CBF5F
:10437000106C5FEAC07061D0106CC0071CBF106C7D
:104380005FEAC0705AD0106CC0071CBF106C5FEAA7
:10439000C07053D0106CC0071CBF106C5FEAC070B7
:1043A0004CD0106CC0071CBF106C5FEAC07045D0C9
:1043B000106CC0071CBF106C5FEAC0703ED0106C60
:1043C000C0071CBF106C5FEAC07037D0106CC0070C
:1043D0001CBF106C5FEAC07030D0106CC0071CBFEF
:1043E000106C5FEAC07029D0106CC0071CBF106C45
:1043F0005FEAC07022D0106CC0071CBF106C5FEA6F
:10440000C0701BD0106CC0071CBF106C5FEAC0707E
:1044100014D0106CC0071CBF106C5FEAC0700DD0C8
:10442000106CC0071CBF106C5FEAC07006D01CF196
:104430001C0C9AD102F14400042107E052F8400F0D
:10444000C00602F104007FF571AF0321026822F07B
:10445000020202600846704770B505464FF600003C
:10446000C0F60300854209D30E464FF6FF7105EBF7
:104470008200C0F603011446884201D9012070BDB4
:1044800000F052F8A4B1043E56F8041F284600F08C
:1044900073F840F205300435FFF7A0FC4FF441708B
:1044A000FFF79CFC40F20230FFF798FC013CEBD197
:1044B000FFF7A4FC002070BD2DE9F04369B3C1F102
:1044C000000CA1F1010E00234FF00C0902EB0906CC
:1044D00050F8235056F80C6CB54221D19E451CD0A3
:1044E00000EB830502EB8306D5F804807768B845B6
:1044F00016D10CEB0307BC1C0FD0AC68B668B442F5
:104500000ED1FC1C09D0EC6852F80950AC4207D11E
:104510000433994209F11009D8D10020BDE8F08395
:104520000120BDE8F083000042F20400C4F2020062
:10453000C168090609D540F22311C4F26751016030
:1045400048F6AB11CCF6EF5101604FF2E071C1F6C5
:10455000FF710988B1F5007F0DD9C16C090658BFFC
:10456000704740F22311C4F26751016448F6AB1161
:10457000CCF6EF510164704780B54FF2E072C1F69E
:10458000FF721288B2F5007F40F286804FF6FF720C
:1045900040F2000CC0F60702CFF2010C42F20C030D
:1045A000C4F20203E646904280F06E811A68D20798
:1045B0001CBF1A685FEAC27200F0DC811A68D20779
:1045C0001CBF1A685FEAC27200F0D4811A68D20771
:1045D0001CBF1A685FEAC27200F0CC811A68D20769
:1045E0001CBF1A685FEAC27200F0C4811A68D20761
:1045F0001CBF1A685FEAC27200F0BC811A68D20759
:104600001CBF1A685FEAC27200F0B4811A68D20750
:104610001CBF1A685FEAC27200F0AC811A68D20748
:104620001CBF1A685FEAC27200F0A4811A68D20740
:104630001CBF1A685FEAC27200F09C811A68D20738
:104640001CBF1A685FEAC27200F094811A68D20730
:104650001CBF1A685FEAC27200F08C811A68D20728
:104660001CBF1A685FEAC27200F084811A68D20720
:104670001CBF1A685FEAC27200F07C811A68D20718
:104680001CBF1A685FEAC27200F074811EF11C0E32
:104690004FF004028AD179E240F2000CCFF2010C13
:1046A00042F20C03C4F20203E6461A68D2071CBFAA
:1046B0001A685FEAC27261D01A68D2071CBF1A6812
:1046C0005FEAC2725AD01A68D2071CBF1A685FEA42
:1046D000C27253D01A68D2071CBF1A685FEAC2724E
:1046E0004CD01A68D2071CBF1A685FEAC27245D064
:1046F0001A68D2071CBF1A685FEAC2723ED01A68F5
:10470000D2071CBF1A685FEAC27237D01A68D20794
:104710001CBF1A685FEAC27230D01A68D2071CBF89
:104720001A685FEAC27229D01A68D2071CBF1A68D9
:104730005FEAC27222D01A68D2071CBF1A685FEA09
:10474000C2721BD01A68D2071CBF1A685FEAC27215
:1047500014D01A68D2071CBF1A685FEAC2720DD063
:104760001A68D2071CBF1A685FEAC27206D01EF12F
:104770001C0E4FF0040298D108E200BF1A68D2065E
:1047800044BF032080BDD3F800E0022202EA5E02AB
:10479000002A40F0FB815A6842F001025A60016031
:1047A0001868C0071CBF18685FEAC07000F05C8121
:1047B0001868C0071CBF18685FEAC07000F0548119
:1047C0001868C0071CBF18685FEAC07000F04C8111
:1047D0001868C0071CBF18685FEAC07000F0448109
:1047E0001868C0071CBF18685FEAC07000F03C8101
:1047F0001868C0071CBF18685FEAC07000F03481F9
:104800001868C0071CBF18685FEAC07000F02C81F0
:104810001868C0071CBF18685FEAC07000F02481E8
:104820001868C0071CBF18685FEAC07000F01C81E0
:104830001868C0071CBF18685FEAC07000F01481D8
:104840001868C0071CBF18685FEAC07000F00C81D0
:104850001868C0071CBF18685FEAC07000F00481C8
:104860001868C0071CBF18685FEAC07000F0FC80C1
:104870001868C0071CBF18685FEAC07000F0F480B9
:104880001CF11C0C8CD1ECE01A6CD2071CBF1A6C0A
:104890005FEAC27200F0F4801A6CD2071CBF1A6C77
:1048A0005FEAC27200F0EC801A6CD2071CBF1A6C6F
:1048B0005FEAC27200F0E4801A6CD2071CBF1A6C67
:1048C0005FEAC27200F0DC801A6CD2071CBF1A6C5F
:1048D0005FEAC27200F0D4801A6CD2071CBF1A6C57
:1048E0005FEAC27200F0CC801A6CD2071CBF1A6C4F
:1048F0005FEAC27200F0C4801A6CD2071CBF1A6C47
:104900005FEAC27200F0BC801A6CD2071CBF1A6C3E
:104910005FEAC27200F0B4801A6CD2071CBF1A6C36
:104920005FEAC27200F0AC801A6CD2071CBF1A6C2E
:104930005FEAC27200F0A4801A6CD2071CBF1A6C26
:104940005FEAC27200F09C801A6CD2071CBF1A6C1E
:104950005FEAC27200F094801A6CD2071CBF1A6C16
:104960005FEAC27200F08C801EF11C0E4FF0040250
:104970008AD10BE11A68D20644BF032080BDD3F868
:1049800000E0022202EA5E02002A40F0FF805A683C
:1049900042F001025A6001601868C0071CBF186825
:1049A0005FEAC07060D01868C0071CBF18685FEA73
:1049B000C07059D01868C0071CBF18685FEAC07083
:1049C00052D01868C0071CBF18685FEAC0704BD08F
:1049D0001868C0071CBF18685FEAC07044D0186828
:1049E000C0071CBF18685FEAC0703DD01868C007D8
:1049F0001CBF18685FEAC07036D01868C0071CBFBB
:104A000018685FEAC0702FD01868C0071CBF18680C
:104A10005FEAC07028D01868C0071CBF18685FEA3A
:104A2000C07021D01868C0071CBF18685FEAC0704A
:104A30001AD01868C0071CBF18685FEAC07013D08E
:104A40001868C0071CBF18685FEAC0700CD01868EF
:104A5000C0071CBF18685FEAC07005D01CF11C0CB1
:104A60009AD1181D04228DE0184650F8041BC9067F
:104A700000F187801968022202EA510282E000BF39
:104A80001A6CD20644BF032080BDD3F840E0022256
:104A900002EA5E02002A79D15A6C42F001025A649D
:104AA0000160186CC0071CBF186C5FEAC07061D051
:104AB000186CC0071CBF186C5FEAC0705AD0186C25
:104AC000C0071CBF186C5FEAC07053D0186CC007D9
:104AD0001CBF186C5FEAC0704CD0186CC0071CBFBC
:104AE000186C5FEAC07045D0186CC0071CBF186C0A
:104AF0005FEAC0703ED0186CC0071CBF186C5FEA3C
:104B0000C07037D0186CC0071CBF186C5FEAC0704B
:104B100030D0186CC0071CBF186C5FEAC07029D079
:104B2000186CC0071CBF186C5FEAC07022D0186CEC
:104B3000C0071CBF186C5FEAC0701BD0186CC007A0
:104B40001CBF186C5FEAC07014D0186CC0071CBF83
:104B5000186C5FEAC0700DD0186CC0071CBF186CD1
:104B60005FEAC07006D01CF11C0C9AD103F144001E
:104B7000042207E053F8400FC00603F104007FF55C
:104B800079AF0322016821F001010160104680BD68
:104B90004161704701617047A0F18040A0F5843009
:104BA0004FEAB020062888BF704710B500F20230E7
:104BB00084B2204601F018F82046BDE8104001F00C
:104BC00003B800000C2240F2080C02EA81030F2215
:104BD000C4F2010C032902FA03F20BD8DCF800102E
:104BE00098409143CCF80010DCF800100843CCF852
:104BF0000000704707290BD8DCF804109840914357
:104C0000CCF80410DCF804100843CCF8040070471A
:104C1000D2430B2900FA03F00AD8DCF8081011403F
:104C2000CCF80810DCF808100843CCF808007047EE
:104C3000DCF80C101140CCF80C10DCF80C10084318
:104C4000CCF80C007047000070B5CE0601F00F0CD8
:104C500006D5042A42D1C26B4CF0030C1A43C2633E
:104C600000F11002282900F1140E3FD048291BD171
:104C700013F001045CD113F0020463D113F00404B7
:104C80006AD113F0080471D113F0100479D113F034
:104C9000200440F0818013F0400440F0888013F03D
:104CA000800540F08F8024E1DC0740F08F809C0776
:104CB00000F195805C0700F19B801C0700F1A1804A
:104CC000DC0600F1A7809C0600F1AD805C0600F1D7
:104CD000B3801C0600F1B8800BE100BF4CEA020C67
:104CE00000F11002282900F1140EBFD113F00104C5
:104CF00040F0AC8013F0020440F0B38013F00404E1
:104D000040F0BA8013F0080440F0C18013F01004A2
:104D100040F0C88013F0200440F0CF8013F040042E
:104D200040F0D68013F0800540F0DC80E1E000BF69
:104D30000568046125F00F0545EA0C05056013F0D0
:104D400002049BD00568046125F0F00545EA0C15C6
:104D5000056013F0040494D00568046125F47065BF
:104D600045EA0C25056013F008048DD00568046140
:104D700025F4704545EA0C35056013F010043FF446
:104D800086AF0568046125F4702545EA0C45056089
:104D900013F020043FF47FAF0568046125F470052B
:104DA00045EA0C55056013F040043FF478AF056800
:104DB000046125F0706545EA0C65056013F0800517
:104DC00000F09780046805618EE000BF046824F05D
:104DD0000F0444EA0C0404609C077FF56BAF046881
:104DE00024F0F00444EA0C1404605C077FF565AF1E
:104DF000046824F4706444EA0C2404601C077FF502
:104E00005FAF046824F4704444EA0C340460DC06A8
:104E10007FF559AF046824F4702444EA0C4404601C
:104E20009C067FF553AF046824F4700444EA0C54E4
:104E300004605C067FF54DAF046824F0706444EABA
:104E40000C6404601C0654D504684DE00568446198
:104E500025F00F0545EA0C05056013F002043FF448
:104E60004DAF0568446125F0F00545EA0C15056075
:104E700013F004043FF446AF0568446125F47065FF
:104E800045EA0C25056013F008043FF43FAF0568C0
:104E9000446125F4704545EA0C35056013F01004B3
:104EA0003FF438AF0568446125F4702545EA0C45A8
:104EB000056013F020043FF431AF0568446125F428
:104EC000700545EA0C55056013F040043FF42AAF25
:104ED0000568446125F0706545EA0C65056013F0CE
:104EE000800506D00468456124F0704444EA0C74DF
:104EF000046013F4807413D113F4007422D113F4FA
:104F0000806431D113F4006440D113F480544FD144
:104F100013F400545ED113F480447CD06CE000BFE5
:104F20004568282925F00F0545EA0C0504D04829D5
:104F300004D1164601E000BF76463460456013F4A4
:104F40000074DCD04568482925F0F00545EA0C15C9
:104F500004D0282904D1764601E000BF164634600B
:104F6000456013F48064CDD04568482925F4706508
:104F700045EA0C2504D0282904D1764601E000BF7B
:104F800016463460456013F40064BED04568482975
:104F900025F4704545EA0C3504D0282904D176461D
:104FA00001E000BF16463460456013F48054AFD072
:104FB0004568482925F4702545EA0C4504D0282980
:104FC00004D1764601E000BF16463460456013F414
:104FD0000054A0D04568482925F4700545EA0C55D1
:104FE00004D0282904D1764601E000BF164634607B
:104FF000456013F480440ED04568482925F070655B
:1050000045EA0C6504D0282904D1764601E000BFAA
:1050100016463460456013F4004308BF70BD446811
:10502000482924F0704444EA0C7502D0282901D1A3
:1050300072461360456070BD8068084018BF01204B
:1050400070470000B0B50422C4F20102134602F119
:10505000180E002848BF73461C6800F44013B3F5CF
:10506000401F1FFA80FC07D1156824F0E06325F08B
:10507000E064146017E000BFC3020BD46FF00F03AD
:1050800003EA50430CFA03F324EA030343F0E0631A
:1050900009E000BFC0F30343032505FA03F324EA44
:1050A000030343F0E0636FF00F0404EA5044002967
:1050B0000CFA04F518BF2B43002848BF7246136052
:1050C000B0BD00002DE9F04F83B0102042F219412D
:1050D00014240090C5A0C0F6000100224FF4B8735C
:1050E000019402F053FB40F2483AC2F2000ACAF8B7
:1050F00000000F2042F2ED010090BEA0C0F60001BA
:1051000000228023019402F041FB41F2D921CAF828
:10511000040005270A25B9A0C0F6000100224FF4BB
:1051200040730095019702F031FB40F21441C2F246
:1051300000010860B4A0002101F0D2FD40F264310A
:10514000C2F200010860B3A00021002202F038F88A
:1051500040F25C31C2F200010860B1A001210022DE
:10516000012402F02DF840F26031C2F20001086023
:1051700041F26941ADA0C0F6000100224FF4007376
:105180000095019702F002FB40F2FC31C2F20001EF
:105190000860A8A00821002201F076FB40F28431CB
:1051A000C2F20001086041F69941A5A0C0F60001D5
:1051B00000224FF440730195009402F0E7FA40F2A8
:1051C000104BC2F2000BCBF80000022041F2C521C7
:1051D00000909DA0C0F6000100224FF4807301945E
:1051E00002F0D4FA40F20841C2F20001086041F234
:1051F000857198A0C0F6000100224FF4407300941E
:10520000019702F0C3FA40F20046C2F2000641F2F2
:10521000DD713060042591A0C0F6000100224FF43A
:10522000B6730194009502F0B1FA40F20448C2F25C
:105230000008C8F800008BA00021002201F0C0FF88
:1052400040F27831C2F20001086089A000210022FA
:1052500001F0B6FF40F20C41C2F20001086041F6D5
:1052600029014FF0030985A0C0F6000100224FF488
:105270008063CDF80090019702F088FA40F28831FF
:10528000C2F20001086042F249617FA0C0F600014D
:1052900000224FF400730097019702F077FA04465A
:1052A0007AA00421002201F0EFFA42F26511CAF857
:1052B000080078A0C0F6000100224FF400730095AA
:1052C000019702F063FA40F21441C2F2000109684A
:1052D0000546084602F0A8FC40F2FC30C2F200008D
:1052E000006802F0A1FCDBF8000002F09DFC3068D1
:1052F00002F09AFCD8F8000002F096FC052002F0BB
:105300009DFA40F27C30C2F200000068007801286B
:1053100028D141F6293168A0C0F6000100224FF4DF
:105320008073CDF80090019702F030FA40F2F43625
:10533000C2F2000630604AF69930C0F60000002143
:10534000002201F03DFF40F270323168C2F20002EB
:105350001060084602F068FC40F24837C2F20007CD
:105360003E1D2BE04AF6943041F2B531C0F6000004
:10537000C0F6000100224FF40073CDF800900197B1
:1053800002F004FA40F21846C2F20006306044A06F
:105390000021002201F014FF40F26831C2F2000146
:1053A000086042A0002101F09BFC40F26C3140F209
:1053B0004837C2F20001C2F200070860306802F00C
:1053C00033FC386802F030FC40F28830C2F2000052
:1053D000006802F029FC204602F026FC284602F074
:1053E00023FC002003B0BDE8F08F00BF4C454443D0
:1053F000616C00004C454443414E000055415254FD
:10540000526561640000000055415254305F547889
:105410004D75740055415254305F547853656D009A
:1054200055415254305F527853656D00436F6E663C
:1054300069670000436F6E6669675F4D6200000038
:10544000494D555265616400494D55536C6176650F
:1054500072000000494D554148525300494D55488E
:1054600065617400494D555F494E543153656D0077
:10547000494D555F494E543253656D004461746126
:105480004F757075740000004B6579004B65795F4E
:105490004D6200004B6579416374696F6E000000D6
:1054A000555342445F53656D000000005553425F01
:1054B00054784D757400000043414E00B0B54AF673
:1054C00048444AF64440C0F60004C0F60000A0423A
:1054D00009D24AF64445C0F6000500BF55F8040B52
:1054E0008047A542FAD3BDE8B040FFF7EBBD00000E
:1054F0004EF60C5CCEF2000CDCF8003003F4E063F6
:10550000B3F5E06F02D104232FE000BFDCF80030D8
:1055100003F4E063B3F5C06F02D1032325E000BFBD
:10552000DCF8003003F4E063B3F5A06F02D102238E
:105530001BE000BFDCF8003003F4E063B3F5806FDC
:1055400002D1012311E000BFDCF8003003F4E06376
:10555000B3F5407F02D1002307E000BF40F20053C3
:10556000C0F2FA53CCF80030022301FA03FCC3F175
:1055700004030F21D94011404EF2001241EA0C0100
:10558000CEF20002090140EA020383F8001300F0A2
:105590001F01012303FA01F11C2303EAD00081500B
:1055A0007047000040F080604EF60C5140F0FD70F6
:1055B000CEF20001086070472DE9F04F8AB00591E6
:1055C00015990FF2D4464F060FF2E04858BFB04687
:1055D000CE06DDE9134948BF21F00101CE074FF0A7
:1055E000300A08BF4FF0200A8E070DD4002701971C
:1055F000002701250097002A00F09A80CDE902518A
:10560000CDF810A013E000BFB2F1FF3F06DD4E075A
:1056100000F186800E07E9D5202782E00127019757
:10562000002702972D27CDE9031A524200974CF626
:10563000CD494FF0000BCCF6CC490DF1180A00BF54
:10564000A2FB09561409F50802F00F0705EB850CBB
:1056500025460A2B04BFF508A2EB4C0718F8077083
:10566000002D0AF80B7049D0A5FB097C04F00F0748
:10567000140ACE464FEADC06A14606EB86060A2B44
:1056800004BF4FEADC09A5EB460718F807500AEB00
:105690000B0CB9F1000F59468CF8015032D0A9FB20
:1056A0000E5604F00F05140B5146F708A24607EBFF
:1056B00087070A2B04BF4FEAD60AA9EB470518F85B
:1056C0000550BAF1000F8CF802501FD0AAFB0E56FD
:1056D00004F00F04120CF50805EB85050A2B04BF36
:1056E000F208AAEB450418F80440F1460BF1040B4C
:1056F000002A8A468CF80340A2D109E00BF1010B85
:1057000006E000BF0BF1020B02E000BF0BF1030B40
:10571000DDF810A0DDE90251DDE913490DE000BF1D
:105720002B270097002501270197002A7FF466AFF9
:1057300030228DF818204FF0010BDDF814E0CB4536
:105740004B46C8BF5B4611F0110FA4EB03025FD0BC
:1057500006462DB976453CBF00983070013A0136B7
:10576000C80631D4551EC0F28D8012F0030700F038
:105770009580764538BF86F800A0012F06F101001C
:1057800040F09680023A0646032DC0F08B80101D33
:10579000764506F1010238BF86F800A0724538BF91
:1057A00082F800A0B21C724538BF82F800A0F21C3B
:1057B0007245A0F1040038BF82F800A0032806F16A
:1057C0000406E5DC4FF0FF323046CB455EDAA3EB52
:1057D0000B076FEA0B0617F0030703EB060C57D015
:1057E00070453CBF302404705D1E012F00F10104A0
:1057F00009D07445A3F102053CBF30262670022F64
:1058000000F102046CD12046BCF1030F73D28BE08F
:105810000027002AC8BF0127019E3740D71B7A1EE8
:1058200096DB17F0030C51D070453CBF2024047068
:10583000BCF1010F00F1010640F00481023F304647
:10584000032A46D33A1D2026704500F1010738BFD0
:105850000670774538BF3E70871C774538BF3E706D
:10586000C71C7745A2F1040238BF3E70032A00F13D
:105870000400E9DC4FF0FF320646002D3FF46AAF2A
:105880006EE700BF30462A46CB45A0DB04464BE01E
:105890001D46BCF1030F2ED246E000BF2A46032D61
:1058A000BFF475AF4FF0FF32CB45FFF690AFEDE799
:1058B000704538BF80F800A0022F06F1020040F0CA
:1058C000D180033A0646032DECD360E71746032A3E
:1058D000B8D24FF0FF32002D3FF43CAF40E700BF9D
:1058E00003307445A3F103053CBF30232370044605
:1058F000BCF1030F18D33023044600BF744504F1F4
:10590000010038BF2370704538BF0370A01C70457C
:1059100038BF0370E01C7045A5F1040538BF037063
:10592000AB4504F10404E9DBB9F1000F35D006A85A
:10593000023807E0ABF1040B0BF10403042B04F174
:1059400004042AD9744503D200EB0B035B7823705F
:10595000BBF1020F04F101031EDB73453CBF10F8DD
:105960000B701F70BBF1030F04F1020314D37345D6
:1059700004D200EB0B0717F8017C1F70BBF1040F7A
:1059800004F1030308D37345D4D200EB0B0717F8D7
:10599000027C1F70CEE700BF1C46012A12DB12F00A
:1059A0000307A2F1010311D074453CBF20202070F1
:1059B000012F04F101000DD11A460446032B3ED3FA
:1059C00022E000BF20460AB0BDE8F08F032B36D39B
:1059D0001AE000BF7045A2F102063CBF2025057009
:1059E000022F04F1020005D132460446032B26D3D0
:1059F0000AE000BF03347045A2F103023CBF202738
:105A000007702046032B1AD3013A2023204600BFFB
:105A1000704500F1010738BF0370774538BF3B7010
:105A2000871C774538BF3B70C71C7745A2F104023D
:105A300038BF3B7012F1020F00F10400E8D30AB046
:105A4000BDE8F08F76453CBF20243470BCF1020FD6
:105A500000F1020612D1033F3046032AFFF439AFAA
:105A6000F0E600BF0336704538BF80F800A0043A66
:105A70003046032DBFF48BAE14E700BF764503D24A
:105A80002C462025357025460330043F0646032A60
:105A9000BFF4D8AE1DE700BF30313233343536376E
:105AA000383961626364656600000000303132336A
:105AB000343536373839414243444546000000000A
:105AC00041F2C001C4F202010A6822F0010210434F
:105AD0000860704710B541F20402C4F20202116876
