:020000040800F2
:1000000008F3002019020008D91F0008390300086E
:10001000D51F0008350800083D2500080000000035
:10002000000000000000000000000000DD1F0008CC
:10003000B50800080000000087020008E11F000862
:1000400033020008330200083302000833020008BC
:1000500033020008330200083302000833020008AC
:1000600033020008B9080008E1080008330200085C
:1000700033020008330200086D080008330200084C
:10008000330200083302000833020008330200087C
:10009000312500083908000833020008330200083F
:1000A000330200083302000833020008330200085C
:1000B000330200083302000833020008330200084C
:1000C000330200083302000833020008330200083C
:1000D00033020008AD240008330200083302000890
:1000E00033020008330200083525000833020008F7
:1000F000330200083302000833020008330200080C
:1001000033020008330200083302000833020008FB
:1001100033020008330200083302000833020008EB
:1001200033020008A5080008330200083302000863
:1001300000F002F800F060F80AA090E8000C824499
:100140008344AAF10107DA4501D100F055F8AFF276
:10015000090EBAE80F0013F0010F18BFFB1A43F0A5
:100160000103184774D1000094D100000A444FF0F5
:10017000000C10F8013B13F0070408BF10F8014B06
:100180001D1108BF10F8015B641E05D010F8016B4B
:10019000641E01F8016BF9D113F0080F1EBF10F8AF
:1001A000014BAD1C0C1B09D16D1E58BF01F801CBD2
:1001B000FAD505E014F8016B01F8016B6D1EF9D555
:1001C0009142D6D37047000000230024002500266A
:1001D000103A28BF78C1FBD8520728BF30C148BFAA
:1001E0000B6070471FB50CF0AEFA9DE8030000F0FD
:1001F0001FFA1FBD10B510BD00F055FA1146FFF7EC
:10020000F1FF00F0EDFA00F08DFA03B4FFF7F2FF12
:1002100003BC00F0E7F9000009488047094800479F
:10022000FEE7FEE7FEE7FEE7FEE7FEE7FEE7FEE7A6
:10023000FEE7FEE704480549054A064B7047000003
:10024000952000083101000808EB002008F3002089
:1002500008EF002008EF0020EFF3108072B670471F
:1002600080F310887047424A1368012B04D04FF086
:10027000010313603F4A10603F4A11603F484FF04E
:10028000805101607047EFF3108272B63848016800
:1002900051B34FF0000101603648016891B1EFF3AE
:1002A00009811EF0100F08BF21ED108B21E9F00F1E
:1002B0004FF000041EF0100F08BF012441F8044D58
:1002C000006801602C490968096808C9B1E8F00FA5
:1002D000002B18BFB1EC108B81F309884EF0100E83
:1002E000002B18BF2EF0100E82F310884EF0040E73
:1002F000704721490860EFF3148222F0040282F370
:1003000014881C494FF00000086019494FF00100A3
:1003100008601B481B49D0F8002041EA0201016037
:1003200016484FF08051016017480068006880F35C
:10033000088861B662B670471EF0040F0CBFEFF379
:100340000880EFF3098020E9F00F40F804ED40F851
:1003500004ED1EF0040F0CBF80F3088880F30988B9
:1003600000B508F0E7FA5DF804EB4EF0040E7047B4
:10037000F0EA002064E800206CE8002004ED00E0D2
:1003800020ED00E00000FFFF08ED00E0032A40F24E
:10039000308010F0030C00F0158011F8013BBCF127
:1003A000020F624498BF11F801CB00F8013B38BF3F
:1003B00011F8013BA2F1040298BF00F801CB38BF4D
:1003C00000F8013B11F0030300F02580083AC0F06B
:1003D000088051F8043B083A51F804CBA0E8081013
:1003E000F5E7121D5CBF51F8043B40F8043BAFF346
:1003F0000080D20724BF11F8013B11F801CB48BFA0
:1004000011F8012B24BF00F8013B00F801CB48BFD5
:1004100000F8012B704710B5203AC0F00B80B1E80E
:100420001850A0E81850B1E81850A0E81850203A29
:10043000BFF4F5AF5FEA027C24BFB1E81850A0E832
:10044000185044BF18C918C0BDE810405FEA827C4C
:1004500024BF51F8043B40F8043B08BF7047D20763
:1004600028BF31F8023B48BF11F8012B28BF20F804
:10047000023B48BF00F8012B704702F0FF0343EA3C
:10048000032242EA024200F002B84FF000020429BF
:10049000C0F0128010F0030C00F01B80CCF1040CB3
:1004A000BCF1020F18BF00F8012BA8BF20F8022BE7
:1004B000A1EB0C0100F00DB85FEAC17C24BF00F88D
:1004C000012B00F8012B48BF00F8012B70474FF0BB
:1004D000000200B5134694469646203922BFA0E894
:1004E0000C50A0E80C50B1F12001BFF4F7AF0907A0
:1004F00028BFA0E80C5048BF0CC05DF804EB890091
:1005000028BF40F8042B08BF704748BF20F8022BD3
:1005100011F0804F18BF00F8012B704770477047EB
:10052000704770B5064600F063F8056806F10B00E9
:1005300020F00704B4429CBF002070BD2B466A68BF
:10054000BAB11068A04210D304F1080188423CBF40
:100550005068586007D35168101941601168091B31
:10056000016058601460101D70BD13465268002A67
:10057000E7D12146284600F047F80028DED170BDBB
:1005800070B50446051F00F033F80068002C14BF56
:10059000446870BD002C18BFAC423CBF2046646864
:1005A000F8D301680A18AA4218BF456003D12A6827
:1005B00005461144016028684119A1421CBF6C60C6
:1005C00070BD6168696021680844286070BD10B51D
:1005D00000F012F8006810BD10B5044600F00CF8E9
:1005E000046010BD01491820ABBEFEE726000200E2
:1005F000004870473004002000487047280400205D
:10060000704770477047704738B504460A46002067
:100610006946AFF30080002808BF38BD0246009944
:10062000204600F065F8012038BD012000F088B8B0
:10063000F8B5AFF30080054600200C46102000BF3F
:100640000646A819A0420DD9324669460020AFF3EC
:100650000080070008BF00F073F80098A04218BFA0
:100660000546C419FFF7C4FF05600746F01D20F0DA
:1006700007004619284600F00AF8B44208BFF8BD42
:10068000A21B31463868BDE8F84000F031B80021BF
:100690000160C0E9011070471020704700487047A2
:1006A0002804002070477546FFF7F8FFAE460500A6
:1006B0006946534620F00700854618B020B5FFF77D
:1006C000B9FDBDE820404FF000064FF000074FF0A5
:1006D00000084FF0000BAC46ACE8C009ACE8C0091C
:1006E000ACE8C009ACE8C00921F007018D467047AD
:1006F000034640688C46002818BF88423CBF03462A
:100700004068F8D318681844884207D00CF10300F9
:1007100020F00700001D411A521A0146081D0A6008
:10072000FFF72EBF10B50446AFF300802046BDE8AA
:100730001040FFF76ABD002801D0FFF753BF704794
:1007400010B500F01DF8BDE81040FFF7F4BF70B51C
:1007500005460C460A2000E06D1C00F039F835B162
:1007600028780028F8D102E0641C00F031F814B1B8
:1007700020780028F8D1BDE870400A2000F028B8A1
:1007800010B5012805D0002103A0FFF7E0FF0120EC
:1007900010BD09A1F8E7000053494752544D454D9B
:1007A0003A204F7574206F662068656170206D6512
:1007B0006D6F7279000000003A2048656170206D0D
:1007C000656D6F727920636F727275707465640005
:1007D00008B569468DF800000320ABBE08BD0000D7
:1007E00080B582B0FFF738FD07F06EFD08F0F2FF2C
:1007F00009F09CF909F0ECF80A2000904DF2C020B5
:1008000047F649114FF0140CC0F60000C0F6000185
:1008100000224FF48073CDF804C009F0FDF909F00F
:1008200049FC09F08BF909F06FFB09F067F900202A
:1008300002B080BDFEE70000B0B546F20044C4F24D
:1008400000048421C0F20101204605F06BF940F25A
:100850009845C2F2000528680121426F204605F044
:1008600069F9E869BDE8B04008F012BFB0B540F2E0
:100870009844C2F2000425680222E868297C05F049
:10088000D7FB002808BFB0BDE868297C05F01EFB37
:10089000E868297C012205F0C3FBA068BDE8B040F0
:1008A00008F0F6BE40F2BC40C2F20000006803F05F
:1008B000E3B800007047000080B5082005F022FC76
:1008C000002808BF80BD082005F016FC40F23C500F
:1008D000C2F200000068BDE8804008F0D9BE000008
:1008E00080B5102005F00EFC002808BF80BD102048
:1008F00005F002FC40F23850C2F200000068BDE88A
:10090000804008F0C5BE00002DE9F04342B1531EFF
:10091000032B02F0030C05D20022BCF1000F2ED1F4
:10092000BDE8F08302F0FC0200F1080E01F10809B5
:10093000C2F1000800220025475909EB05034FEAE0
:1009400037474F510EEB050757F8047C4C1923F835
:10095000027C3B0C5EF805704619A3803B0C29F81D
:100960000530F368043A4FEA3343904505F110052A
:100970006781E360E0D15242BCF1000FD0D050F863
:10098000223001EB82061F0CBCF1010F21F822700E
:100990007380C5D0531C50F8237001EB83053E0CC7
:1009A000BCF1020F21F823606F8008BFBDE8F0831F
:1009B000023250F8220001EB8207030C21F82230AA
:1009C0007880BDE8F0830000F0B542B1531E032BE0
:1009D00002F0030C04D20022BCF1000F23D1F0BDC1
:1009E00002F0FC0200F1080E01F10803544200225B
:1009F000002500BF46595F194E510EEB050656F80B
:100A0000046C043A47F8046C5EF8056047195E51BF
:100A1000FE684F19944205F11005FE60EAD152427A
:100A2000BCF1000FDBD050F82230BCF1010F41F8CF
:100A30002230D4D0531C50F82370BCF1020F41F87F
:100A4000237008BFF0BD023250F8220041F82200A6
:100A5000F0BD0000F0B542B1531E032B02F0030CB1
:100A600004D20022BCF1000F1DD1F0BD02F0FC0247
:100A700000F10803C2F1000E0022002405590E19EE
:100A80000D511D1955F8045C071975601D59043A7C
:100A9000B560FD68964504F11004F560EED1524250
:100AA000BCF1000FE1D050F8223001EB82071E0AA2
:100AB00001F822307E701E0C1B0EBCF1010FBE70BF
:100AC000FB70D2D0531C50F8237001EB830601F861
:100AD00023703B0A73703B0CB3703B0EBCF1020FEA
:100AE000F37008BFF0BD023250F8220001EB820320
:100AF00001F82200010A5970010C000E9970D8709B
:100B0000F0BD000085B0D0F8EC1091E80C10C96879
:100B1000CDE90232CDE9001C9DED030A9DED031ADB
:100B20009DED022A9DED023A21EE000A23EE021A03
:100B30009DED012A9DED013A31EE000A23EE021AE5
:100B40009DED002A9DED003A30EE010A23EE021AD7
:100B500030EE010A4FF07E510491B1EEC00A9DEDD6
:100B6000041A81EE000A8DED040A049904919DEDAA
:100B7000040AD0F8EC20D0F8001192ED001A21EE12
:100B8000000A82ED000A9DED040A92ED011A92ED31
:100B9000022A21EE000A82ED010A92ED033A9DED50
:100BA000040A22EE000A82ED020A9DED040AB6EE66
:100BB000002A23EE000A82ED030A40F2D8529DED8E
:100BC000020AC2F2000292ED651A20EE020A20EE3D
:100BD000010A81ED040A9DED010A92ED651A20EEED
:100BE000020A20EE010A81ED050A9DED030A92ED4D
:100BF000651ABEEE003A20EE030A20EE010A81EDEE
:100C00000A0A9DED000A92ED651A20EE020A20EE16
:100C1000010A81ED0B0A9DED000A92ED651A20EEA6
:100C2000030A20EE010A81ED100A9DED030A92ED00
:100C3000651A20EE030A20EE010A81ED110A9DEDEE
:100C4000010A92ED651A20EE020A20EE010A81EDFA
:100C5000160A9DED020A92ED651A20EE030A20EEB7
:100C6000010A81ED170AD0F8F80092ED6A0A90EDBA
:100C70001C1A44F2000181EE002A90ED230AC4F20E
:100C80001C6180ED1C2A92ED6A1A80EE010A9FED2C
:100C9000091AB4EE412AF1EE10FAB4EE410A80EDE1
:100CA000230AC8BF0167F1EE10FAC8BFC0F88C1064
:100CB00005B0704700401C46B0B540F2D8544CF621
:100CC0007740C2F20004C3F22B20C4F8A40104F55B
:100CD000C47080EC030AB7EE000A0025F4EE401A57
:100CE000204606210022032384F83451C4E94E55DE
:100CF000C4E9505584ED652AF1EE10FAC8BFF0EE54
:100D0000401AC4ED6A1A00F033FC04F5CC7004F507
:100D1000D0730121012203F0DDFCD4F8E8104FF07C
:100D20007E52C1E90025C1E9025540F68151C0F665
:100D3000000140F6053240F6BD5341F2BD0504F115
:100D4000CC0CC0F60002C0F60003C0F600058CE82B
:100D50002E0040F20111D4F8000161854CF66C01BF
:100D6000C0F600019022FFF756FBD4F8F80040F2DD
:100D70006801C2F200019022FFF74DFBB0BD0000F8
:100D800010B50446D0F8F81040F26800C2F2000036
:100D90009022FFF740FBD4F81C1140F28850C2F2B9
:100DA00000004822FFF737FBD4F80C1140F2405006
:100DB000C2F200004822FFF72EFB10BD10B584B030
:100DC0000446D0F8EC0040F2944190ED000A90ED1A
:100DD000011A90ED022A30EE000A90ED033A8DEDF3
:100DE000030A31EE010A8DED020A32EE020A8DEDA0
:100DF000010A33EE030A8DED000AC2F200010988F0
:100E0000A27B237BD4F80C0151435943FFF75FFBCE
:100E10009DED010AD4F80C01B1EE400A80ED000A04
:100E2000009941609DED030A029A039B019CB1EE7B
:100E3000400A80ED020AC260C0E90623C0E9081436
:100E400003639DED020A9DED011AB1EE400AB1EE79
:100E5000411A80ED0D0A80ED0E1AC16304B010BD79
:100E600070B52DED068B84B040F2D854C2F2000468
:100E7000B0EE429A94ED522A94ED533A94ED655AAD
:100E800094ED544A30EE420A30EEC32AB6EE003AF0
:100E900025EE033A31EE441A84ED550A23EE000A9A
:100EA00084ED562A84ED571A8DED030A23EE020ACB
:100EB0008DED020A23EE010A8DED010A0546D4F8F4
:100EC00000014CF66C01C0F600019022B0EE628A7F
:100ED000B0EE61AAFFF79FFA9DED030AD4F8000176
:100EE0009DED021A9DED012A0399019AB1EE400A87
:100EF000B1EE411AB1EE422A80ED010A80ED021AEC
:100F000080ED032A816102629DED020A029AB1EE30
:100F1000400A80ED090A02639DED010AC16301994F
:100F2000B1EE400A80ED0D0AC0E912129DED030AF0
:100F300029EE091AB1EE400A80ED140A2AEE0A0AD7
:100F400031EE000A28EE081A30EE010AB7EE001A58
:100F500084ED58AA84ED599A84ED5A8AB1EEC00AFC
:100F600081EE001A84ED5F0A002100268DED001A43
:100F700094ED580A9DED001A606821EE000A80ED9C
:100F8000000A94ED590A9DED001A21EE000A80ED49
:100F9000010A94ED5A0A9DED001A21EE000A80ED37
:100FA000020A94ED550A94ED561A94ED572A20EE54
:100FB000000A21EE011A31EE000A22EE021A30EE8A
:100FC000010A9FED3B1AB1EEC00AB4EE410A0020BF
:100FD00084ED5E0AF1EE10FAB8BF012094ED5F0ACD
:100FE0009FED342A94ED621AB4EE420A9FED322A44
:100FF00094ED653AF1EE10FAC8BF01210840B4EE55
:10100000420A0021F1EE10FAB8BF0121084084F82D
:101010003501D4F8140123EE010A80ED000A94EDA5
:10102000620A94ED651A21EE000A80ED070A94ED3C
:10103000620A94ED651A21EE000A80ED0E0A94ED25
:10104000620A94ED651A21EE000A80ED150A94ED0E
:10105000630A94ED651A21EE000A80ED1C0A94EDF6
:10106000630A94ED651A21EE000A80ED230AD4F894
:101070009001D4F818110860D4F890010861D4F8F0
:1010800090010862204600F0C9FD206801682960CF
:10109000416869608168A960C168E9600169C4F854
:1010A00048114069C4E9530604B0BDEC068B70BD1D
:1010B0009A99993ECDCC1441CDCC24412DE9F04FE5
:1010C00085B000F1780500F18008044628464146C5
:1010D00004F0A2FA84F8C800B4F87800274627F88C
:1010E000A80FB4F85A0004F15801A4F8AA00284641
:1010F0003A46009104F074F884F8C8003888A34692
:10110000B4F882102BF8B00FA4F8B210384641465C
:101110005A4604F065F8214684F8C80051F8900F4B
:10112000264646F8A00F5846324603F05BFA84F88C
:10113000C8003046594603F0D1FA84F8C800D4F804
:10114000EC00A14690E80E00C0684FF0010ACDE91E
:101150000103B4F87800CDE9032129F8B80FA4F809
:10116000BAA0D4F82C619DED030A9DED011A9DED06
:10117000042A9DED023A21EE000A23EE021A30EE17
:10118000410A30EE000A86ED000A9DED041A9DED3D
:10119000032A9DED023A9DED014A22EE011A24EE4A
:1011A000032A32EE011A31EE011A86ED011A9DED85
:1011B000041A9DED042AB0EEC00A22EE011A9DED3C
:1011C000032A9DED033A9DED024A9DED025A23EE5E
:1011D000022A9DED013A9DED016A25EE044A26EEB4
:1011E000033A34EE022A33EE011A31EE421A86ED4A
:1011F000021A0AF077FE40F2D855C2F2000585EDDA
:101200005B0A96ED010AB0EEC00A0AF06BFE85EDAE
:101210005C0A96ED020AB0EEC00A0AF063FE85EDA4
:101220005D0A204630F8481F264626F8C01F49466A
:101230003246A6F802A004F077F9318884F8C80095
:101240003980584631463A46A4F8AAA003F0C8FFB0
:1012500084F8C80030884946A4F8BA003046A9F896
:1012600000A004F0D9F984F8C80005F5CC7248460E
:10127000394603F0B5FF84F8C80095ED691A95ED7D
:10128000680AB6EE002A21EE022AB4EE420AF1EE16
:1012900010FA07DA85F834A1B4EE410AF1EE10FA3B
:1012A0000CDC25E095F834A1BAF1000F18BF4FF01F
:1012B000010AB4EE410AF1EE10FA19DDBAF1000F9D
:1012C00016D0D5E94E1095F83521013140F10000D6
:1012D000002A04BF10461146B1F1330270F100023A
:1012E000C5E94E10C0F01C81002085F8340121E0D2
:1012F0009FED9B2A31EE403A21EE022A83EE022A2C
:101300009FED963ABAF1000F21EE031AB7EE003ABC
:10131000B0EE434AB4EE410A4FF0000018BFB0EE01
:10132000424AF1EE10FAC8BFB0EE443A85ED603A99
:10133000C5E94E00002084F82C00B4F85800B4F839
:101340008210A4F8A8000098A4F8AA1041463A46D2
:1013500003F046FF04F1980884F8C800384659465F
:10136000424603F03DFFB4F898C0B4F89A2084F8E0
:10137000C80002FB0CF3D4F81C21E3B300270020C3
:1013800002EB870195ED600A91ED001A40F001072C
:10139000FFB221EE000ABB4281ED000A2BD902EB1D
:1013A000870195ED600A91ED001A40F00207FFB247
:1013B00021EE000ABB4281ED000A1CD902EB870135
:1013C00095ED600A91ED001A40F00307FFB221EE9F
:1013D000000ABB4281ED000A0DD902EB870195EDB1
:1013E000600A91ED001A0430C7B221EE000ABB4238
:1013F00081ED000AC4D895ED5B0A9FED5A1A92ED73
:101400000C2A20EE010A20EE020A82ED0C0A95ED6C
:101410005B0A92ED0D2A20EE010A20EE020A82ED0F
:101420000D0A95ED5B0A92ED0E2A20EE010A20EEE0
:10143000020A82ED0E0A95ED5C0A92ED0F2A20EE6B
:10144000010A20EE020A82ED0F0A95ED5C0A92ED88
:10145000102A20EE010A20EE020A82ED100A95ED14
:101460005C0A92ED112A20EE010A20EE020A012008
:1014700082ED110AA4F8BA00404631464A46A4F863
:10148000B8C003F0ADFE84F8C80095F83411D4F864
:10149000BC00B9B395ED650A9FED331A90ED043A9F
:1014A00020EE012AB4EE423AF1EE10FA05DD80EDAD
:1014B000042A95ED650AB0EE423A9FED2C2A20EE03
:1014C000024AB4EE443AF1EE10FABCBF80ED044A91
:1014D00095ED650A90ED053A20EE011AB4EE413A19
:1014E000F1EE10FA05DD80ED051A95ED650AB0EE16
:1014F000413A20EE020AB4EE403AF1EE10FAB8BFDB
:1015000080ED050A0021C16004F1380004F13002C9
:10151000494603F067F884F8C80005B0BDE8F08FCD
:1015200040F29445C2F200052A88237BD4F8E800F3
:10153000D4F8EC105A43FEF76EFF2A88237BD4F8C8
:10154000F800D4F8FC105A435A43FEF764FF012018
:1015500084F82C0005B0BDE8F08F00BFCDCCCC3DA9
:101560006666663F84F9223F0AD7233C0AD723BC2C
:101570002DE9F047044640F294470420C2F20007E8
:10158000C0F2080038600020207418469A46904641
:10159000894621736273A37307F0F6FA51466061BE
:1015A000FEF773FF388800FB0AF007F0EDFA398880
:1015B000A06101FB0AF1FEF78AFF388800FB0AF000
:1015C00007F0E2FA3988E06101FB0AF1FEF77FFFDC
:1015D000388800FB09F007F0D7FA3988206201FB50
:1015E00009F1FEF774FF504607F0CEFA51466062EB
:1015F000FEF74BFF388800FB09F007F0C5FA398881
:10160000206001FB09F1FEF762FF388800FB0AF059
:1016100007F0BAFA3988606001FB0AF1FEF757FF5C
:10162000388800FB08F007F0AFFA3988A06001FBAA
:1016300008F1FEF74CFF388800FB09F007F0A4FA28
:101640003988C4F8E80001FB09F1FEF740FF217B6F
:10165000D4F8E83004F13000012203F03BF8388878
:1016600000FB09F007F090FA3988C4F8EC0001FBA0
:1016700009F1FEF72CFF217BD4F8EC3004F138009F
:10168000012203F027F8B8F1000F13D0388800FBCF
:1016900008F007F079FA3988C4F8F00001FB08F186
:1016A000FEF715FF617BD4F8F03004F14000012211
:1016B00003F010F8388800FB0AF007F065FA398863
:1016C000C4F8F40001FB0AF1FEF701FFA17BD4F896
:1016D000F43004F14800012202F0FCFF388809FBD5
:1016E00009F6704307F050FA3988C4F8F8007143DE
:1016F000FEF7EDFE217BD4F8F83004F150000A46E5
:1017000002F0E8FF3888704307F03EFA3988C4F8E1
:10171000FC007143FEF7DBFE217BD4F8FC3004F1C2
:1017200058000A4602F0D6FF3888704307F02CFABA
:101730003988C4F8000106FB01F007F025FA398862
:10174000C4F80401D4F800017143FEF7C0FE3988E3
:10175000D4F804017143FEF7BAFE217BD4F80031BE
:1017600004F160000A4602F0B5FF217BD4F8043191
:1017700004F168000A4602F0ADFFB8F1000F13D083
:10178000388808FB09F5684307F0FEF93988C4F882
:1017900008016943FEF79BFE217B627BD4F8083188
:1017A00004F1700002F096FF38880AFB09F56843DF
:1017B00007F0EAF93988C4F80C0105FB01F007F0DD
:1017C000E3F93988C4F81001D4F80C016943FEF735
:1017D0007EFE3988D4F810016943FEF778FE227B3B
:1017E000A17BD4F80C3104F1780002F073FF217B67
:1017F000A27BD4F8103104F1800002F06BFF38882E
:10180000704307F0C1F93988C4F814017143FEF739
:101810005EFE217BD4F8143104F188000A4602F000
:1018200059FF38880AFB0AF6704307F0ADF939888A
:10183000C4F818017143FEF74AFEA17BD4F81831B1
:1018400004F190000A4602F045FF3888684307F02B
:101850009BF93988C4F81C016943FEF738FE217BE7
:10186000A27BD4F81C3104F1980002F033FF3888D1
:10187000217B4843484307F087F93988227BC4F825
:10188000200151435143FEF722FE3888217B484313
:10189000484307F079F93988227BC4F82401514381
:1018A0005143FEF714FE3888217B4843484307F034
:1018B0006BF93988227BC4F8280151435143FEF764
:1018C00006FE3888217B484307F05EF93988227B81
:1018D000C4F82C015143FEF7FAFD3888217B4843B8
:1018E00007F052F93988227BC4F83001D4F82C0172
:1018F0005143FEF7ECFD217BD4F8203104F1A00028
:101900000A4602F0E7FE217BD4F8243104F1A80056
:101910000A4602F0DFFE217BD4F8283104F1B00042
:101920000A4602F0D7FE217BD4F82C3104F1B8002E
:10193000012202F0CFFE217BD4F8303104F1C00047
:10194000012202F0C7FE002084F82C00A062BDE84E
:10195000F08700002DE9F04F83B00446C07B40F2D1
:1019600094480028C2F200086AD00020B8F800208D
:10197000A37B2074D4F8F40061685A43FEF74BFD52
:10198000B8F80010A27B60685143FEF7A0FDB8F8DC
:101990000010A27BD4F8180151435143FEF797FD84
:1019A000B8F80010227BA37BD4F80C0151435943B3
:1019B000FEF78DFD94F80EC0BCF1000F2CD0002076
:1019C000002104E00131614500F1040024D2D4F883
:1019D000F4301F1897ED000AB5EE400AF1EE10FA48
:1019E000F0D0227C676A03EB820383ED000AB954CE
:1019F000D4E90532257B1758227C5B5CD4F80C6156
:101A000094F80EC012FB053306EB8303013243F852
:101A1000047C2274D6E700BF94F810A0BAF1000F3E
:101A20007DD0E169666AD4F818C1AAF101000328E3
:101A30000AF0030516D20020002D55D16FE000BF3B
:101A4000B8F80020A37BD4F8F40061685A43FEF78D
:101A5000E2FCB8F80010A27B60685143FEF737FD46
:101A600070E000BF0AF0FC00C0F1000B082000EBA2
:101A7000CA09102000EB0A17042000EB8A020AEBC7
:101A80004A000C230095751C03EB80036FF00300E4
:101A90000196CDF808C000BF05EB000E9EF803804C
:101AA000043051F82860CCF800609EF8046051F8CA
:101AB00026604CF802609EF8056051F826604CF8EC
:101AC00009609EF8066051F826604CF803600BEB45
:101AD00000060436BC44DFD140F294489DE8601013
:101AE0000430C2F20008D5B1335C0AF1010251F8AA
:101AF000233000FB02F7012D4CF827300FD0431C98
:101B0000F75C534351F82770022D4CF8237006D030
:101B10000230335C504351F823104CF82010207BE6
:101B2000A4F878A0A4F87A00A4F88000A4F882A011
:101B3000A4F890A0A4F892A0A4F89800A4F89AA001
:101B4000A4F848A0B8F80020637BD4F8F000A1689E
:101B50005A43FEF760FC03B0BDE8F08F2DE9F04377
:101B600081B0044690F82A0010B101B0BDE8F083BE
:101B700004F1780504F180092846494603F04CFD3C
:101B800084F8C800B4F87800264626F8A80FB4F800
:101B90005A0004F15808A4F8AA00284641463246E3
:101BA00003F01EFB84F8C80030882746B4F8821082
:101BB00027F8B00FA4F8B210304649463A4603F071
:101BC0000FFB214684F8C80051F8900F254645F8D0
:101BD000A00F38462A4602F005FD84F8C8002846C2
:101BE000394602F07BFD84F8C800B4F85800B4F818
:101BF00082103080A4F8AA1040464946324603F0CD
:101C0000EFFA84F8C800A5F108023046394603F01F
:101C1000E7FA84F8C80001B0BDE8F0832DE9F04F81
:101C200081B08346FFF796FEDBF8CC1009B1584629
:101C300088479BF8280048BB9BF80D00002800F05F
:101C4000B9819BF80C005D4625F8B80F01240BF113
:101C500060000BF130012A46ABF8BA4003F0C0FA3D
:101C60009BF80C105E4626F8C01F3072A6F150009B
:101C7000A6F180013246748003F0B2FA3072A6F108
:101C800088022846314602F0ADFC3072DBF8D010F5
:101C900009B1584688479BF8290050BB0BF16005F5
:101CA0000BF168062846314603F0B6FC0BF15807E5
:101CB0008BF8C8000BF1500128463A4603F090FA21
:101CC000BBF858105D4625F8A81F35F83E1C8BF868
:101CD000C8006980384631462A4603F081FA8BF8FD
:101CE000C800A5F1200128463A4602F07BFC8BF89B
:101CF000C800DBF8D41009B1584688479BF810009B
:101D000040F294440028C2F2000400F08780584654
:101D1000FFF724FFDBF8D81009B1584688479BF835
:101D20002B00A8BB584630F8781F5D4625F8B81F31
:101D30000BF13808A146012441462A46ABF8BA40C7
:101D400003F04EFA8BF8C800584630F8481F5F463B
:101D500027F8C01F29463A46ABF8C24003F0E4FB1F
:101D60005E4636F8981F8BF8C80029803046394601
:101D70002A46ABF8BA404C4603F032FA8BF8C8005A
:101D8000A6F168024046294602F02CFC8BF8C800F8
:101D9000DBF8DC1009B1584688479BF82C0030BBB3
:101DA000584630F8982F5D4625F8A82F2E4626F87D
:101DB000082F35F84E2C35F82E3CA5F130016A81FC
:101DC0002A466B80A5F1500703F00AFA85F8200037
:101DD00028463946324603F003FA85F82000A5F17B
:101DE00058023846314603F09FFB85F82000DBF8A7
:101DF000E01009B1584688479BF80CA0BAF1000FD3
:101E00002CD0DBF82010DBF8F8E0AAF10100032861
:101E10000AF00308009125D200276DE09BF80F001F
:101E200000283FF474AF22889BF80C30DBF8E80000
:101E3000DBF8EC105A43FEF7EEFA22889BF80C30E0
:101E4000DBF8F800DBF8FC105A435A43FEF7E3FADC
:101E5000DBF8E0100029CDD1CEE700BF4FF0000A3B
:101E600094E000BF0820042200EBCA05102002EB1A
:101E70008A030AEB4A020C240AF0FC0C00EB0A105D
:101E8000083104EB82020027744600BF94ED001A6B
:101E900011ED020A04EB0309B4EE401AF1EE10FA58
:101EA000B8BF84ED000A99ED001A11ED010A661918
:101EB000B4EE401AF1EE10FAB8BF89ED000A96EDC3
:101EC000001A91ED000A0437B4EE401AF1EE10FA50
:101ED000B8BF86ED000AA61896ED001A91ED010A2A
:101EE0000444B4EE401AF1EE10FAB8BF86ED000AD1
:101EF000BC4501F11001C9D1B8F1000F42D00AF17F
:101F00000100009B00FB07F10EEB810103EB870250
:101F100091ED001A92ED000A40F29444B4EE401A9A
:101F2000F1EE10FAC2F20004B8BF81ED000AB8F178
:101F3000010F2BD07A1C00FB02F10EEB810103EBA9
:101F4000820291ED001A92ED000AB4EE401AF1EE11
:101F500010FAB8BF81ED000AB8F1020F16D0B91C13
:101F600048430EEB800003EB810190ED001A91EDE8
:101F7000000AB4EE401AF1EE10FAB8BF80ED000A84
:101F800004E000BF40F29444C2F200042288DBF86F
:101F90000000DBF8E8100AFB02F2FEF73CFADBF87F
:101FA000E41009B158468847DBF8000001B0BDE8ED
:101FB000F08F00BF0BF160000BF130010BF1380224
:101FC00003F00EF98BF8C800DBF8D01000297FF47D
:101FD00060AE60E6FEE7000070470000704700005A
:101FE00080B506F09BFD08F001F9BDE8804006F0E1
:101FF000A3BD000041F20400C4F20200016801F038
:102000000C01082941F20021C0F27A012CD10268AA
:10201000D20305D440F6001CC0F23D0C0DE000BF19
:10202000826A0368520046F60042C0F2DC2258BFC2
:102030000A46C3F3404122FA01FC026803681021FA
:10204000C2F3834201EAD35111440268202303EA18
:102050005262114402220E2988BF012211443D29F7
:1020600088BF3F2101FB0CF140F2F802C2F20002EE
:102070001160006803A3C0F30310185C21FA00F09C
:10208000106070470000000000000000010203041F
:102090000607080981B04EF68851CEF200010A68A1
:1020A00041F2040042F47002C4F202000A6050F8E7
:1020B000041C41F0010140F8041C50F8041C89077D
:1020C0000CD450F8041C89075CBF50F8041C5FEA6C
:1020D000817103D450F8041C8907EED5016841F0E2
:1020E0008001016000210091009A4F2A18D800BF9A
:1020F000009A01320092009A4F2A11D8009A0132B8
:102100000092009A4F2A0BD8009A01320092009A4E
:102110004F2A05D8009A01320092009A502AE7D33C
:10212000026842F090020260009100994F2917D88E
:1021300000990131009100994F2911D8009901317E
:10214000009100994F290BD8009901310091009915
:102150004F2905D800990131009100995029E7D302
:1021600001684FF6FF7221F00301016050F8041C72
:10217000CFF6F662114040F8041C4FF41F01416095
:1021800050F8041C21F4802140F8041C0021016057
:10219000816250F8041C41F4803140F8041C4FF671
:1021A000FC7150F8042C92030ED450F8042C9203C6
:1021B0005CBF50F8042C5FEA823205D421B150F89C
:1021C000042C04399203ECD550F8041C890301D483
:1021D000FEE700BF826947F2040142F08052C4F278
:1021E0000001826151F8042C4FF6FF7342F4404223
:1021F00041F8042C0268CBF2C373026002680260EB
:10220000026842F480620260026822F44032026096
:10221000026842F48032026002681A4002604EF6A0
:10222000FC730268C0F2090303441A43026050F8C9
:10223000042C42F0807240F8042C50F8042C9201D7
:102240000CD450F8042C92015CBF50F8042C5FEAC7
:10225000821203D450F8042C9201EED551F8042CCC
:1022600042F4803241F8042C0A68D20309D40A6887
:10227000D2035CBF0A685FEAC23202D40A68D203A2
:10228000F2D551F8042C42F4003241F8042C0A68CB
:10229000920309D40A6892035CBF0A685FEA82323B
:1022A00002D40A689203F2D5016821F003010160AB
:1022B000016841F0020101600168090709D4016861
:1022C00009075CBF01685FEA017102D40168090770
:1022D000F2D501B0704700002DE9F043530808D053
:1022E0005D1E032D03F0030C06D20022BCF1000F8B
:1022F00035D1BDE8F08300BF7C2404EA520200F12E
:10230000080E01F10809C2F100080022002500BFF3
:102310004619475B74880EEB050344EA0744B78807
:1023200033F8023C4C5143EA074309EB050444F8F7
:10233000043C3EF805307489043A44EA0343B48906
:10234000F6894F1949F8053046EA0443904505F1EE
:102350001005FB60DCD15242BCF1000FC9D000EB8C
:10236000820330F822705B88BCF1010F43EA074317
:1023700041F82230BDD0531C00EB830730F82360B6
:102380007F88BCF1020F47EA064741F8237008BF77
:10239000BDE8F083023200EB820330F822005B8854
:1023A00043EA004041F82200BDE8F083B0B542B1F5
:1023B000531E032B02F0030C04D20022BCF1000FC9
:1023C0001CD1B0BD02F0FC02A0F1100EA1F110036F
:1023D000544200225EF8105F043A43F8105FDEF8C2
:1023E000045094425D60DEF808509D60DEF80C50A9
:1023F000DD60EFD15242BCF1000FE2D050F8223044
:10240000BCF1010F41F82230DBD0531C50F82350AF
:10241000BCF1020F41F8235008BFB0BD023250F8A2
:10242000220041F82200B0BD70B55FEA920C09D0DD
:10243000ACF10103032B0CF0030C05D20022BCF11C
:10244000000F1CD170BD00BF3C2303EA9202C2F111
:10245000000E0022002300BFC458C518CC506C6881
:10246000CE187460AC68043AB460EC68964503F129
:102470001003F460F0D15242BCF1000FE2D050F8EA
:102480002230BCF1010F41F82230DBD0531C50F850
:102490002360BCF1020F41F8236008BF70BD023217
:1024A00050F8220041F8220070BD000070B540F2E3
:1024B0009845C2F200052E6840F20531706840F27E
:1024C0000434C0F20301C0F2040409F049F8706852
:1024D000214609F04FF8002808BF70BD7069317EB1
:1024E00003F0F4FC70684FF4417109F021F8706951
:1024F000317E03F0F1FDC0F1200083B27081F06DF8
:102500003289316E934238BF1A46FDF73FFF316E74
:10251000706806F119029142214608BF06F139029E
:10252000326609F01DF8E868BDE8704007F0B0B801
:1025300009F082BB4FF4802003F050BEFEE700009C
:1025400040F23C54C2F2000420684FF0FF3107F023
:10255000C9F8F9E7782001F02DFD00F119010166B5
:102560004CF60811C0F6000101F1080343F6000122
:10257000C4F20101002240F2984501F54846C0E945
:102580001C22C2F200050424C0E9022603222860AE
:1025900046610476C0E900310274084608F0BAFFCB
:1025A00040F2C046C2F2000610E000BF2868B0F852
:1025B0006510306849BA06F09DFC012007F084FBE5
:1025C0002868102200F1640101F06CFAE8684FF00D
:1025D000FF3107F087F8296848890428F0D10846B8
:1025E00010F8642F302AEBD191F86740032103F0F3
:1025F0005DF98442E4D12C6894F8650018B994F828
:1026000066000428D2D02869022106F01FFE0028A7
:10261000CCD104F164012046042201F07DFAA868BF
:102620004FF0FF3107F05EF8286906F0B5FDBDE711
:10263000C02001F0BFFC40F2984540F2181140F272
:102640000002C2F20005C2F20001C2F2000268609C
:1026500009F0B8FAD5E90004D4E92C1289680267B8
:102660000120884740F2C0460520C2F20006A07053
:1026700008E000BF2868006F8188306849BA06F01A
:1026800039FC00BF68694FF0FF3107F02BF868682C
:102690002A68D0F8B400416C10670429F2D184791B
:1026A0000330032103F002F98442EBD12868006F64
:1026B000044614F8031F3029E4D1017911B9407997
:1026C0000428D7D0A869022106F0C0FD0028D1D186
:1026D000686881212246042309F0DCF8A86906F025
:1026E0005BFDC7E78EB04FF600080A20C0F603086E
:1026F00001F060FC4FF4407140F2B8460027418081
:1027000003210124C2F20006077041600481306099
:10271000182001F04FFC706005F0DCFCD8F80000D8
:102720004FF47F62316802EA101202F540720870BD
:102730004A80020C000E0A714871887105F0D8FCBD
:10274000756843F60040C4F20000ADF83470CDE97E
:102750000B778DF82A70ADF8287000F550414022B3
:1027600000F5E43385E80F002C7408F0CDFBD5E9C3
:102770000101016170680BA901F0DAFA0997D8F834
:10278000000040F2640901900490D8F8041009ADEB
:10279000039105910846D8F80810C2F20009029189
:1027A0000691D8F80CA00846CDF81CA0D8F8100067
:1027B0004FF07E5B4FF00208089003E03068407AEB
:1027C00000283FD1B06829464FF0FF3206F0CCFA1E
:1027D0000998010A012919D00029EFD105F07AFCE6
:1027E0009DF8240004282AD8DFE810F0080106002C
:1027F00018001E00240000BFD9F80000C0E91BB774
:10280000C0E91D7705F074FCDCE700BFC0B200280A
:1028100000F048800128D5D1D6E000BF30680472AE
:1028200005F066FCCEE700BF3068077205F060FC7B
:10283000C8E700BF3068417980F80580817105F0F4
:1028400057FCBFE743F23220ADF828007068322110
:102850008DF82A100AA9012201F084F909986FF075
:10286000010101EB1021192900F29280DFE801F04B
:102870000E40489090909090909090909090525AE6
:102880005E62687074787E84888C00BFC0B2032852
:1028900000F27E80DFE800F0028A8E92019820F03C
:1028A000FF008EE04FF60000C0F6030001680191C2
:1028B0000491426803920592826802920692D0F8CF
:1028C0000CA0CDF81CA00169F068089107F054FA3B
:1028D00040F28840C2F20000006807F04DFA7068CC
:1028E0000AA9012201F03EF9306844726AE700BF8C
:1028F000C1B204294CD8019960F3174107E000BF29
:1029000000F0FE01092943D8019960F30F210191DC
:1029100004913DE0039921F07F4141EA006003907A
:10292000059035E0039960F3174106E0039960F3E1
:102930000F2102E0039960F307010391059127E05D
:10294000029921F07F4141EA0060029006901FE069
:10295000029960F3174106E0029960F30F2102E04B
:10296000029960F307010291069111E02AF07F417C
:1029700041EA006A0AE000BF60F3174A06E000BFC0
:1029800060F30F2A02E000BF60F3070ACDF81CA035
:10299000032007F099F970680AA90122ADF82870A0
:1029A0008DF82A7001F0DEF80CE700BF019864F39F
:1029B000070006E0019820F07F4002E0019864F3F0
:1029C0001F6001900490E3E705F084FB306800216C
:1029D000417203F071FA04AD2846042103F030FA85
:1029E0004FF60004C0F6030408902046012103F0CE
:1029F000FBFB20462946052203F074FF00F032FF5E
:102A000082B04FF47A7007F05FF905F063FBDFEDF9
:102A10001B0A9FED191AB2EE040AF7EE001AB0EE87
:102A2000602AFEF749F905F063FB40F2B844C2F2B0
:102A300000042068C07930B9642007F045F92068A7
:102A4000C0790028F8D040F26405C2F2000501AC5C
:102A500007F0C6FB019005F03DFB286800F19401EA
:102A600091EC060A6C30FEF7FBF905F041FB2046BD
:102A7000012107F02FF9EBE78096184B6F12833A8C
:102A800082B000200190142007F01EF940F2640685
:102A900040F20044C2F20006C4F2000401AD00BFDF
:102AA00007F09EFB3168019091ED180A084601F08D
:102AB00041F9BCEEC00A10EE102A2046032108F0AE
:102AC000A9FB2846142107F005F9E9E788B040F290
:102AD000DC5007F0F9F840F2B847C2F20007386856
:102AE00001220179C07902FA01F530B9642007F0BA
:102AF000EBF83868C0790028F8D002AC40F2640BDB
:102B000040F298489FEDAF8A9FEDAF9A601C1FFA84
:102B100085FA0026C2F2000BC2F200080DF11C0972
:102B200001900AE0D8F8000021460E22002300F0B0
:102B300045FF4846514607F0CDF807F051FB39688C
:102B400007900A7A012A40F0D1800878012866D1DE
:102B5000039648790296012822D000285ED140F2DF
:102B6000FC05DBF80000C2F200052B686C30214642
:102B7000022298473968D8F800004988224608237D
:102B800000F0DCFEDBF800002B68743021460222E6
:102B9000984738684188D8F80000013189B239E097
:102BA000DBF800000325B0F85A20B0F8583012BA0C
:102BB000B0F85C00120CADF80A20020A8DF80C2067
:102BC0001ABA8DF80D008DF80E50120CD8F80000CE
:102BD0004988ADF808202246082300F0AFFEDBF854
:102BE00000008DF80E50B0F85410B0F8522009BA19
:102BF000B0F85600090CADF80A10010A8DF80C1057
:102C000011BA0A0C39688DF80D00D8F8000049880F
:102C1000ADF808202246082300F090FE3968ADF890
:102C200018600596CDE903664879029601281BD005
:102C300000285AD1402040F2FC018DF80800DBF852
:102C40000000C2F200010B6801996C300422984721
:102C50002046112102F02AFE39688DF81900087803
:102C60001225D8BB33E000BFDBF80000B0F85810E5
:102C7000B0F85A2009BA090CADF8091011BAB0F829
:102C80005C20090CADF80B1011BAB0F85220090CF9
:102C9000ADF80D1011BAB0F85420090CB0F8560078
:102CA000ADF80F1011BA090C00BAADF8111041219E
:102CB000000C8DF80810ADF8130020460D2102F02D
:102CC000F5FD39688DF8150008780E2530B9D8F86B
:102CD000000021462A46002300F054FED8F80000E8
:102CE00021462A46002300F069FE39684879022807
:102CF0007FF41FAFADF81460CDE9036688790296C2
:102D00004871DBF80000422190ED1F0A90ED201A77
:102D100020EE080ABDEEC00A8DF8081010EE101A59
:102D200009BA21EE080A90ED212A090CBDEEC00A6D
:102D3000ADF8091010EE101A09BA22EE080A90ED4B
:102D4000223A090CBDEEC00AADF80B1010EE101AB5
:102D500009BA23EE080A090CBDEEC00AADF80D1041
:102D600010EE101A90ED230A09BA20EE080A090C99
:102D7000BDEEC00AADF80F1010EE101A90ED240A47
:102D800009BA20EE090ABDEEC00A10EE100A00BA18
:102D9000090C000CADF81110ADF8130020460D2100
:102DA00002F084FD39688DF81500087800287FF45A
:102DB000B9AED8F8000021460E22002300F0E2FD53
:102DC000B0E600BF00007A440000484486B01420FA
:102DD00001F0F0F840F29846C2F2000631689FED2B
:102DE000558A9FED559A40F2C04440F2640A46F27B
:102DF0000049C2F20004C2F2000A4FF0000BC4F214
:102E00000009486704E000BF2068012106F072F85D
:102E1000F0694FF0FF3106F065FC3068406FC07A12
:102E2000032809D00228EFD00128F1D12068002121
:102E300006F060F8ECE700BFDAF8000040F2B847AF
:102E400090ED1F0A90ED201A20EE080ABDEEC00A90
:102E500090ED212A10EE100A21EE080AC2F20007B6
:102E6000BDEEC00AA0463C6810EE102A22EE080A09
:102E7000BDEEC00A6488010A10EE105A8DF81000E9
:102E80000420130A2F0ACDE9014B08248DF80F10F6
:102E9000ADF81500484601A9ADF80CB08DF80E400C
:102EA0008DF811308DF812208DF813708DF81450B4
:102EB00002F08EFEDAF8000040F2B84790ED220AE8
:102EC00090ED231A20EE080ABDEEC00A90ED242AE8
:102ED00010EE100A21EE080AC2F20007BDEEC00A89
:102EE0003F6810EE102A22EE090ABDEEC00A7F8864
:102EF000010A10EE105A8DF810000420130A2C0A53
:102F0000CDE9017B08278DF80F10ADF81500484674
:102F100001A9ADF80CB08DF80E708DF811308DF858
:102F200012208DF8134044468DF8145002F050FEE4
:102F30006EE700BF00007A44000048444FF60400EA
:102F4000C0F60300026843688168101440F264050B
:102F500000EE100A9FEDF31AC2F20005B8EEC00AA7
:102F6000286820EE010A12B280ED1F0A00EE102A36
:102F7000B8EEC00A20EE010A1A1480ED200A00EE15
:102F8000102AB8EEC00A20EE010A1AB280ED210A1A
:102F900000EE102AB8EEC00A20EE010A0A1480EDF5
:102FA000220A00EE102AB8EEC00A20EE010A09B289
:102FB00080ED230A00EE101A9FEDDB1A40F6004167
:102FC000B8EEC00AC4F2010120EE010A01F5105268
:102FD000012680ED240AC0E9102186640E61006C90
:102FE00007F092FF286876214030002200F0CAFFE7
:102FF000286811214030012200F0C4FF052006F0AE
:1030000063FE28682D21403000F062FF2868762199
:103010004030002200F0B6FF28684F2140300622E1
:1030200000F0B0FF286850214030062200F0AAFFCF
:1030300028684E2140300F2200F0A4FF07F0D0F89E
:1030400029689FEDBA8A91ED180AB4EE480AF1EEAC
:1030500010FA18DA044641F2893700BF07F0C0F8C9
:10306000001B2968B8420ED301F1400000F044FF74
:10307000142006F029FE296891ED180AB4EE480ADA
:10308000F1EE10FAEADB01F140007621002200F0B7
:1030900079FF286811214030012200F073FF0520DC
:1030A00006F012FE28682D21403000F011FF28683C
:1030B00076214030002200F065FF2868142140305E
:1030C000122200F05FFF28684F214030062200F0F6
:1030D00059FF286850214030062200F053FF28682D
:1030E0004DF24E114AF25802C3F69C31C3F68B22C0
:1030F000C0E9191240305121562200F043FF2868E0
:1031000052214030112200F03DFF28685321403009
:103110000D2200F037FF286863214030002200F0C4
:1031200031FF286864214030002200F02BFF28681E
:1031300065214030082200F025FF286866214030D4
:10314000002200F01FFF286868214030002200F0B4
:1031500019FF286869214030002200F013FF286819
:1031600076214030012200F00DFF28680B2140300D
:10317000A02200F007FF28680C2140300C2200F04C
:1031800001FF28680D214030902200F0FBFE2868E6
:103190000E214030802200F0F5FE28687621403074
:1031A000022200F0EFFE286803214030182200F0D0
:1031B000E9FE286804214030902200F0E3FE2868F0
:1031C00005214030802200F0DDFE28687621403065
:1031D000002200F0D7FE286851214030122200F072
:1031E000D1FE286853214030052200F0CBFE28682C
:1031F00052214030332200F0C5FE082002F07CFF4F
:10320000102002F079FF082002F0E0FF102002F009
:10321000DDFF286876214030002200F0B3FE2868E8
:103220004E2140300F2200F0ADFE40F2B840C2F215
:103230000000006840F23854C2F20004C67100BFBA
:1032400020684FF0FF3106F04DFA28682D214030FC
:1032500000F03EFE0007F3D52868403000F0D6FDB0
:1032600004F038FF2868B0F9521090ED221A00EEF1
:10327000101AB8EEC00A31EE000A90ED191AB0F932
:10328000541020EE010A80ED280A00EE101A90ED8D
:10329000235AB8EEC00A35EE000AB0F9561020EEF7
:1032A000010A80ED290A00EE101A90ED245AB8EEBA
:1032B000C00A35EE000AB0F9581020EE010A90ED70
:1032C0001F3A80ED2A0A00EE101A90ED1A2AB8EE85
:1032D000C00A33EE000AB0F95A1020EE020A90ED4F
:1032E000204A80ED250A00EE101AB8EEC00A34EE2E
:1032F000000AB0F95C1020EE020A80ED260A00EE0A
:10330000101A90ED211AB8EEC00A31EE000A20EE34
:10331000020A80ED270A04F0EBFE2868403000F036
:10332000EBFD8DE76F12833A0AD7A33A00002242E1
:1033300082B04FF47A7006F0C7FC40F2B840C2F297
:10334000000000680125408800F5506005EB101072
:103350005FFA80F9B9F1000F1AD040F22457C2F297
:10336000000700240DF1040806F03AFF4E460190D4
:1033700064203D7006F0A8FCC8203C7006F0A4FC58
:10338000013EF5D1404641F2883106F0A3FCEBE75F
:1033900001AC00BF06F024FF0190204641F28831C5
:1033A00006F098FCF6E7000084B040F2884840F24E
:1033B000C0474FF00009C2F200080DF10C0BC2F239
:1033C000000741F288344FF0000A00260021CDF8B2
:1033D0000C908DF80A90ADF8089010E040F2C047CC
:1033E0004FF00009C2F200074FF40071386805F091
:1033F00081FD386840F2011105F07CFD019900293A
:103400006CD0022900F0BB800129F8D140F2B8400D
:10341000C2F20000006801910178002000290CBF71
:10342000782078218DF8080040F2BC40C2F20000FC
:1034300000688DF80A1002A901228DF809904FF05A
:10344000010A00F08FFB06F0CBFE064606F0C8FE30
:10345000801B41F287318842C6D800254FF0010A0F
:103460004FF0000908E000BF06F0BAFEDDF80CA03E
:10347000461FB81BA0424DD206F0B2FED8F8081085
:10348000074608465946012205F06EFC0028F0D197
:103490000398BAF1010F4FEAD0710391E4D10028EB
:1034A000E2D45FFA89F0B0FA80F14FEA51190028AE
:1034B00018BF78204FF0000108BF78218DF8080070
:1034C00040F2BC40C2F2000000688DF80A1002A968
:1034D00001228DF8095000F045FBC5E7D8F8080037
:1034E00059464FF0FF3205F03FFC0398BAF1010F47
:1034F00005464FEAD0716FF3DF4503914FF00001AD
:1035000037D1002835D4A81B40F2DC5188420FD9AE
:1035100001261CE05FEA09603FF460AF40F2C0475B
:1035200040F201214FF00009C2F200075EE700BF40
:10353000C0087C284FF000011BD840F2B840C2F20E
:1035400000000068007810F0010012D002263868F0
:103550004FF4807105F0CEFC40F2BC40C2F2000096
:10356000006802A9012200F0FDFA642006F0ACFB1D
:103570003146DDF80CA02E4602297FF445AF0191BB
:1035800006F02EFE064606F02BFE801B41F2873128
:103590004FF0010A884254D84FF4806509E000BF1B
:1035A00006F01EFEDDF80CA0A0F10A06B81BA04232
:1035B00040D206F015FED8F80810074608465946CE
:1035C000012205F0D1FB0028F0D10398BAF1010FD8
:1035D0004FEAD0710391E3D10028E1D440F20A40D0
:1035E00040F20A46854238BF6E1C40F2BC4543F2A9
:1035F0003220C2F20005ADF808002868322102AC82
:103600008DF80A102146012200F0ACFA052006F0E0
:103610005BFB286821460122ADF808908DF80A90DE
:1036200041F2883400F09EFA012006F04DFB354649
:10363000B6E700BF40F2C047C2F20007B5F5806FA1
:1036400004D138684FF4806102E000BF3868691E19
:1036500005F050FC052006F037FBCAE6000000002C
:1036600082B040F2BC40C2F2000000210068E8468F
:103670008DF80210ADF800104146012200F072FAF8
:103680009FED6D0B9FED6E9A9FED6EAA9FED6EBA4A
:103690009FED6ECA9FED6EDA9FED6FEA9FED70FAB7
:1036A00040F2B84B40F2245ADFED6C9ADFED69AA84
:1036B000C2F2000BF3EE0E8AC2F2000A56EC105B67
:1036C0000DF1040911E000BF40F2BC40C2F200005D
:1036D00000684146012200F045FA4846082106F0FC
:1036E000F9FAB0EE49AAB0EE489A06F079FD39EE43
:1036F0000B8AB4EE4D8AF1EE10FA019010DD39EE2E
:103700000E8A3AEE0C9AB4EE4D9AF1EE10FA15DCF0
:10371000B5EE409AF1EE10FAB8BF3AEE299A0FE0F2
:10372000B5EE408AF1EE10FAB8BF39EE2A8A3AEEC9
:103730000C9AB4EE4D9AF1EE10FAE9DD3AEE0F9ADA
:10374000DBF80000B0EE480A047802F06DF8B0EE45
:1037500040AA0CB3B0EE490A00F0FEFE2AEE281A89
:1037600021EE000A30EE280ABDEEC00A10EE100A63
:10377000B0EE480A8DF8000002F056F8B0EE40AA0C
:10378000B0EE490A02F050F82AEE281A21EE001A8B
:10379000B0EE480A12E000BF2AEE280A30EE280AEE
:1037A000BDEEC00A10EE100AB0EE480A8DF8000017
:1037B00000F0D2FE20EE281AB0EE490A31EE281AA7
:1037C000BDEEC11A11EE100A8DF8010000F0C4FE22
:1037D00020EE280A30EE280A9AF80000BDEEC00A52
:1037E00010EE104A00288DF802403FF46DAF9DF8AE
:1037F00000009DF8017008F036FD2A46334608F0B7
:1038000045FD08F001FD8DF80000384608F02BFD5D
:103810002A46334608F03AFD08F0F6FC8DF8010020
:10382000204608F020FD2A46334608F02FFD08F018
:10383000EBFC8DF8020047E7333333333333D33FA8
:1038400000000000920A863F920A063CDB0F493CCA
:10385000DB0FC940E052C940D6CCC8C06374C94030
:1038600053ABC8C04EF60C50BFF34F8FCEF20000E2
:103870000168042201F4E061C0F2FA5211430160D0
:10388000BFF34F8F00BF00BF00BF00BFFAE70000CB
:1038900082B040F6004440F28846C4F20104012799
:1038A00001ADC2F200060BE041F00040002700909D
:1038B000B068009905F01EFB28460F2106F00AFAB1
:1038C00006F08EFC01902046102103F0FBFD87429C
:1038D000F2D00D2006F0F8F906F082FC00902046A8
:1038E000102103F0EFFD00990028DDD021F0004009
:1038F00000900127DCE70000B0B50021C4F22421CC
:10390000416000214CF200040025C4F2483100233C
:1039100040F2000CC4F27944C4F2963500F120075D
:103920004FF08042C4F2A003C4F2400C4FF0000EEE
:1039300087E80E50C0E90D45B0BD0000002A18BF51
:10394000002B01D1704700BF10B586B0002001AC3C
:10395000082B28BF082301910290ADF80C0004F158
:103960000B0011461A468DF80E30FCF70FFD46F29B
:103970000040C4F20000214602F02AF906B0BDE87A
:103980001040704770B551B140F29846C2F200063F
:10399000B0690C461946154605F058FC10B10120D7
:1039A00070BD00BF7068812122462B4607F072FF70
:1039B000B06905F0F1FB002070BD0000F0B581B0EA
:1039C00059B140F29847C2F20007064638690D46E1
:1039D0001946144605F03AFC10B1012001B0F0BDC3
:1039E00030462946224600F097F8B8684FF0FF317C
:1039F00005F078FE386905F0CFFB002001B0F0BD7E
:103A000070B5044600680E468021154607F0AEFAF0
:103A100000281CBF012070BDE068217C022202F05A
:103A2000FFFAE068217C324602F020FBE068217C4E
:103A30002A4602F03FFBE068217C02F05BFA00209E
:103A400070BD0000B0B50D46044600BF20680221DD
:103A500007F08CFA0028F9D02068294607F05EFAB2
:103A60002068012107F082FA0028F9D0206807F0C9
:103A700051FAC0B2B0BD000010B50446C068217C48
:103A8000022202F0D5FA58B1E068217C02F01EFA59
:103A9000E068217C022202F0C3FA012010BD00BFC1
:103AA000002010BD70B5044640680D46052116463D
:103AB00007F036FD00281CBF42F2102070BD202008
:103AC000202E28BF06466069217E2681E56502F02A
:103AD000FDF96068042107F023FD606840F20431BD
:103AE000C0F2040107F03CFD606807F0B9FC6068B3
:103AF0004FF4417107F028FD6069217E226E02F0CB
:103B0000B5FA6069217E202202F0D4FA6069217E34
:103B100002F0F0F9002070BD70B5044640680E4612
:103B20000721154607F0FCFCA0B1E068217C0222C9
:103B300002F076FAE068217C324602F097FAE068FB
:103B4000217C2A4602F0B6FAE068217C02F0D2F924
:103B5000002070BD42F2102070BD000000BF00BF09
:103B600000BF7047002904BF01207047B0B514465C
:103B700042692346054600F00BF804EBC40069696E
:103B8000013082B22846BDE8B040FFF739BF0000DF
:103B90002DE9F047002B4FF0000C00F0C38003EB41
:103BA000C30EA1F1020902F10408002499F90250A0
:103BB0004FF4C046B5F1FF3FC8BF4FF480466F06D3
:103BC0004FF4406758BF4FF400673E44AF064FF4D0
:103BD000C07758BF4FF4807728073E4405F01007A0
:103BE0004FF00600374458BF042038446F074FF0A9
:103BF000300758BF202705F00201ED0747EA801083
:103C000039444FF0060540F4006008BF042545EA3A
:103C1000C1012031F6091519400916556870A970BF
:103C200019F9030F4FF4C041B0F1FF3FC8BF4FF483
:103C3000804146064FF4406658BF4FF40066314459
:103C400086064FF4C07658BF4FF48076070731449C
:103C500000F010064FF006070E4458BF04273E44FC
:103C600047074FF0300758BF202747EA861646F42B
:103C7000006A00F00206C0074FF006003E4408BF8D
:103C8000042040EAC600C9092030E9704FEA5A1101
:103C900008EB040608F80410707099F901004FF45D
:103CA000C041B0F1FF3FC8BF4FF4804146064FF41A
:103CB000406658BF4FF40066314486064FF4C07624
:103CC00058BF4FF480760707314400F010064FF0DC
:103CD00006070E4458BF04273E4447074FF03007FD
:103CE00058BF202747EA861646F4006A00F002060D
:103CF000C0074FF006003E4408BF042040EAC6005B
:103D0000C90909342030A9714FEA5A11A645E97151
:103D100028727FF44BAF03EBC30002F800C0BDE88C
:103D2000F08700BF002002F800C0BDE8F087000067
:103D30004161704790ED011A90ED062A80ED030A6B
:103D400090ED073A90ED084A31EE400A30EE421A03
:103D500080ED041A31EE432A80ED071A24EE011A91
:103D600090ED094A90ED0C3A80ED020A80ED060ACA
:103D7000B0EEC05A24EE000AB4EE435AB0EE406AE8
:103D800080ED052A9FED204AF1EE10FAA8BFB0EEB3
:103D9000446AB5EE403AF1EE10FA18BFB0EE460AAA
:103DA00090ED0A3A90ED0B6A23EE022AB4EE465AE1
:103DB000F1EE10FAB0EE423AB5EE406AA8BFB0EEAE
:103DC000443AF1EE10FA18BFB0EE432A90ED0F4AD4
:103DD00030EE010A30EE040A90ED0D1A90ED0E3A25
:103DE00030EE020AB4EE410AF1EE10FAC8BFB0EEAE
:103DF000410AB4EE430AF1EE10FAB8BFB0EE430A3E
:103E000080ED0F0A704700BF000000002DE9F04F61
:103E100085B004464068A168416120469F21FFF7B4
:103E200011FE20460021FFF70DFE049020460021E0
:103E3000FFF708FE039020460021FFF703FE0290E3
:103E400020460021FFF7FEFD019020460021FFF7EC
:103E5000F9FD064620460021FFF7F4FD07462046FF
:103E60000021FFF7EFFD054620460021FFF7EAFDA0
:103E7000804620460021FFF7E5FD814620460021CF
:103E8000FFF7E0FD824620460021FFF7DBFD834679
:103E900020460021FFF7D6FDD4E9011240EA0B20AD
:103EA0000A61DDE90321A08342EA01216182DDE9A3
:103EB000012142EA0121A18247EA0621E18248EA82
:103EC000052121834AEA0921618305B0BDE8F08F0D
:103ED00010B504464068A26841F080014261204666
:103EE000FFF7B0FD2046FF21FFF7ACFDD4E901123A
:103EF0000A6110BD00000000F0B581B004464068C2
:103F0000A168416120469D21FFF79CFD20460021CC
:103F1000FFF798FD054620460021FFF793FD40EA94
:103F2000052000B200EE100A9FED151AB8EEC00A87
:103F300020EE010AB0EE041AD4E9011230EE010AB3
:103F4000266A10EE100A0A6108F08CFB054630461E
:103F50000F4608F087FB9FED080B53EC102B08F081
:103F600095F92A463B4608F0A7F808F073F8206256
:103F700001B0F0BD00BF00BFCDCCCCCCCCCCEC3F71
:103F8000D8DF453AB0B5054614464068AA68426194
:103F90002846FFF757FD28462146FFF753FDD5E990
:103FA00001010161B0BD40F29070C2F200000068F2
:103FB0007047000010B50446002808BF012400BF68
:103FC0002046FCF7AEFA002818BF10BDFFF7EBFF44
:103FD00008B18047F4E7002010BD00004EF60C50F9
:103FE000BFF34F8FCEF200000168042201F4E061BC
:103FF000C0F2FA5211430160BFF34F8F00BF00BF00
:1040000000BF00BFFAE70000002804BF002070478F
:10401000C1B209B101200CE010F47F4102D0090ABD
:10402000092006E010F47F0107BF010E1920090CDA
:1040300011204CF61412C0F60002515C084470477F
:10404000B0B50446C07C40B1D4F8B010E06CCB6A87
:104050000021002200259847E574A078032805D1A7
:10406000D4F8AC00016909B120468847207D0328B7
:104070000AD001280AD1D4F8B0000421826A21753F
:1040800020460021904701E000202075607800283C
:1040900008BFB0BDD4F8B000C168204688470020F2
:1040A0006070B0BDB0B5044680780D46032805D1D8
:1040B000D4F8AC00416909B120468847207D042826
:1040C0000ED0022818BFB0BDD4F8B0100325E06CA4
:1040D000CB6A002100222575BDE8B040184700BF1B
:1040E00005EB450004EB80000021C0E907112175B4
:1040F000B0BD0000B0B50446D0F8B00004F10B0527
:10410000036B2846002100229847082813D12878FD
:1041100000F06000402809D0202815D058B920466A
:10412000294607F0B3FE30B914E000BF2046294607
:1041300007F0D6FE70B1D4F8B0000021426B2046E3
:10414000BDE8B040104700BF2046294607F042FABC
:104150000028F0D1B4F8110070B194F90B00B0F15F
:10416000FF3F15DDD4F8B0000222836A204600210B
:104170002275BDE8B0401847D4F8B0100325E06CB4
:10418000CB6A002100222575BDE8B040184700BF6A
:104190000125E26CB4F85030204600212575BDE8B9
:1041A000B04007F077BB000070B50C4609780546B3
:1041B00001F0030102290BD0D9B9A87800F0FE0064
:1041C000022816D16088012813D10020287270BD02
:1041D000A188A87803284FF0010008BF11F07C02E5
:1041E00000D070BD608820B941F08000C0B2802846
:1041F00002D1012070BD00BFD5F8B000CEB2C26BB5
:104200002846314690470028F3D0D5F8B000314613
:10421000826B28469047D5F8AC002146C2682846F4
:104220009047002070BD00008178032908D0022942
:104230000ED1017800291CBF0120704702E000BFA9
:10424000017829B14FF00111C0E913010020704736
:1042500001207047B0B50D460978044601F003010E
:10426000012923D0002943D169884FF0FF3000EBAA
:1042700011220E2A4FF001001ED8DFE802F00921BA
:10428000251D1D1D1D1D1D1D1D1D1D1D2F0000BFDC
:10429000D4F8A80000680178E064A4F85010E98818
:1042A000402904BF0820A4F8500021E0D4F8AC0055
:1042B0002946C26820469047B4F85020EAB9B0BDFC
:1042C000D4F8A80040680DE0C8B2EE2810D8D4F8A1
:1042D000A810C96851F82000017806E0D4F8A800B9
:1042E000806808B1418800E00021A4F85010E06423
:1042F0000120B4F85020002AE1D0E988002908BF45
:10430000B0BDB4F811008A4238BF11468142A4F80A
:10431000501006D2B4F84800B1FBF0F202FB1010C6
:1043200010B10020B0BD00BF0120E0740020B0BD7E
:104330008278032A01D1097911B10120704700BFA9
:10434000D0F8AC104FF001120131C0E91312002077
:10435000704700000B788A8803F0030102291DD002
:10436000012911D031BB817801F0FE0102291CBF67
:10437000012070470279017A002A18BF0122002922
:1043800018BF911C20E000BF817803294FF0010184
:1043900001D1D2B2EAB10846704700BF8178032943
:1043A00008D1D1B2802907D201EB410100EB810194
:1043B0001A3108E00120704702F07F0101EB410152
:1043C00000EB81014A31097840F29472C2F2000296
:1043D000117040F29471C2F200014FF00212C0E974
:1043E0001312002108467047012070478A8842B99D
:1043F000CA8832B9897801F07F0141708278032A36
:1044000002D10120704700BF0222002908BF01220B
:10441000827000207047000070B50446488840F262
:104420009676C2F2000610F0FE0F307002D0012026
:1044300070BD00BFA178032910D00229F7D1010671
:1044400020D0D4F8AC104A68C1B2204690473078EA
:1044500020700320A070002070BD00BF010613D0A3
:104460002178C0B2814204BF002070BDD4F8AC00F6
:10447000826820469047D4F8AC00317842682046E4
:1044800021709047002070BDD4F8AC0000218268F4
:10449000204600259047307820700220A0702846E2
:1044A00070BD00000020704770B50D4609780446C5
:1044B00001F0030102290FD0F9B9A07800F0FE0045
:1044C00002281AD1688801284FF0010018BF70BD7A
:1044D0002072002070BD00BFA988A07803284FF08B
:1044E000010008BF11F07C0200D070BD688820B9BF
:1044F00041F08000C0B2802802D1012070BD00BF11
:10450000D4F8B000CEB2C26B2046314690470028A6
:10451000F3D0D4F8B0003146426B20469047D4F82F
:10452000AC002946C26820469047002070BD0000BC
:1045300080B58278032A01D10A790AB1012080BDB1
:10454000D0F8AC208B78D2F80CC05370E047002034
:1045500080BD0000002070479FED1F1A9FED1F2AAD
:1045600020EE010AB5EE001A30EE010ABDEEC01AC7
:1045700011EE100AB5EE400AF1EE10FAB8BF01389C
:1045800001EE100AB8EEC11A30EE410A20EE020A1E
:10459000BDEEC01A11EE100A410A9FED112A4CF629
:1045A0001C21C0F6000130EE021A1CBF0020B0EE44
:1045B000410A01EB800101EE100A91ED002A91ED14
:1045C000013AB8EE411A30EE410A33EE421A21EEBA
:1045D000000A30EE020A704783F9223E00000044D0
:1045E000000000C480B5B0F800C0438803FB0CF3A2
:1045F000002B5BD0D2F804E04968406813F0030256
:10460000A3F1010C21D090ED000A91ED001A012ACE
:1046100031EE000A8EED000A08D1043004310EF1AB
:10462000040E6346BCF1030F40D311E090ED010A84
:1046300091ED011A022A31EE000A8EED010A37D1FE
:10464000083008310EF1080E023BBCF1030F2DD3E8
:10465000A0F110021039AEF1100000BF92ED040A73
:1046600091ED041A043B31EE000A80ED040A92ED4C
:10467000050A91ED051A31EE000A80ED050A92ED6A
:10468000060A91ED061A31EE000A80ED060A92ED57
:10469000070A91ED071A02F1100231EE000A01F14A
:1046A000100180ED070A00F11000D7D1002080BD75
:1046B00090ED020A91ED021A0C3031EE000A0C3135
:1046C0008EED020A0EF10C0E033BBCF1030FEDD38D
:1046D000BEE7000001804280436070472DE9F04F43
:1046E00095B00746B7F800E048687B88BEF1000F38
:1046F00008911090CDE90EE3029700F00D8110981B
:104700004FF07E55BEF1010F056000F00581109E4F
:104710006FF0030000EB8E0B341D204659464FEA24
:104720008E0AFBF7D4FEDDE90EE3002046F82E00EA
:10473000BEF1020044F80A5000F0EE80AEF1030131
:10474000032900F0030109D254444FF0080A4FF046
:104750000108D946002940F09B80DDE020F00300ED
:104760000A904FEACE0009904FEA0E1007901020F1
:1047700000EB0E1006900EEB8E00800005900EEB05
:104780004E008000DDF8408004900AF10400CDE97D
:1047900000B1039000214FF0140B6FF013046FF081
:1047A0000F006FF00B066FF007036FF00302C146B6
:1047B000149000BF09EB0A00CDE9114200F1080492
:1047C00013910AEB03012046CDE90C36FBF77FFE7F
:1047D0000998ABF10C014044FBF779FE04EB0A05A4
:1047E0004FF07E5044F80A000AEB0601281D4FF0F6
:1047F0007E57FBF76CFE0498ABF108014044FBF7D1
:1048000066FE039EAF51149FAC190AEB0701201DF1
:10481000FBF75DFE0798ABF1040140440B90FBF7FA
:1048200056FE4FF07E50A519A051119C281D0AEB91
:104830000401FBF74CFE059859464044FBF747FE40
:104840004FF07E50A8510698DDE912210C9B0D9E79
:1048500081440A980431DDF82C800BF1100B103CD8
:10486000103F103E103B103A88421497A2D1ABF192
:104870000C0309EB0A0001F101080AEB02099A4650
:10488000029FDDE90EE3DDE900B1041D002943D0FC
:10489000201D0D46ABEB8801FBF719FE4C4408F1D7
:1048A0000106B1002046FBF712FE2946DDE90EE3C2
:1048B0004FF07E55012944F80A502DD004EB0A0030
:1048C00009EB000404300191ABEB8601FBF7FFFD1F
:1048D000201F08F10204A1000AEB0006FBF7F7FD18
:1048E0000198DDE90EE3022846F8045F14D0301D7C
:1048F000ABEB840109EB0605FBF7E9FD0C21A5F103
:10490000080001EB88010AEB0004FBF7E0FDDDE99C
:104910000EE34FF07E50A060002B4FF00000079098
:1049200000F00C84581C7D680690AEF102000490E3
:1049300098004FEA03180390B7EE000A4FF0000901
:104940009A464FF0000B1395CDF8148011E000BF8C
:10495000DDF828A0DDF82CB0DDF82490DDF838E093
:10496000DDF81480AAF1010A9B4509F1040900F061
:10497000E78306992AF003000BFB01F105EB8102A6
:104980000D906FEA0B0092ED001A0BF101010B91F3
:10499000714500EB0301119148D2704410F00300FF
:1049A0005CD00B9FB0EEC14A07FB03B11E4605EB7E
:1049B000810191ED002A5B46B0EEC23AB4EE443A72
:1049C000F1EE10FAC4BF3B46B0EE421A01280BF1DB
:1049D000020145D001FB06B7B0EEC14A05EB8707DF
:1049E00097ED002AB0EEC23AB4EE443AF1EE10FA76
:1049F000C4BF0B46B0EE421A02280BF103012FD0C0
:104A000001FB06B0B0EEC14A05EB800090ED002A34
:104A1000B0EEC23AB4EE443AF1EE10FAC4BF0B461F
:104A2000B0EE421A0BF104011AE000BFB5EE401AD5
:104A30000020F1EE10FA08BF01200799012918BFE4
:104A4000002840F0AF83A3EB0B0C80EE011ABCF101
:104A5000010FCDF850C080F2FD8037E10B995B4625
:104A60000498A0EB0B00032852D3139C039DC81C91
:104A700005FB004C881C05FB0046481C05FB00405C
:104A800005FB01444D4600BF671997ED002AB0EEC3
:104A9000C14AB0EEC23AB4EE443A4719F1EE10FA08
:104AA000C8BF0B4697ED003AC8BFB0EE421AB0EE51
:104AB000C32AB0EEC14AB4EE442A7719F1EE10FAD7
:104AC000C8BF4B1C97ED002AC8BFB0EE431AB0EE2A
:104AD000C23AB0EEC14AB4EE443A0CEB0507F1EE2F
:104AE00010FAC8BF8B1C97ED003AC8BFB0EE421A4F
:104AF000B0EEC32AB0EEC14AB4EE442AF1EE10FA89
:104B0000C4BFCB1CB0EE431A043171454544BBD140
:104B1000B5EE401AF1EE10FA4FF0000008BF012088
:104B200016D0139D5B4517D00F98A0EB0B00844661
:104B3000012845DB0F98119903FB00B0032905EB11
:104B400080000BD216461AF0030126D138E000BFD0
:104B50000F9B139D71E700BF0F9B6EE70D9F1146E2
:104B600006680D680E60056046684D684E604560D9
:104B700086688D688E608560C568CC6801F1100616
:104B8000CD6000F11005C460043F31462846E7D1EE
:104B90002846139D1AF0030112D007683568376064
:104BA0000560139D01290BD04768756877604560E3
:104BB000139D022904D08168B768B160876000BF87
:104BC00008984088E0B3109E03FB00F10BFB00F354
:104BD000471E06EB8101032F06EB83031DD320F054
:104BE000030700BF0E681D681E600D604E685D689B
:104BF0005E604D608E689D689E608D60CD68DC68EB
:104C000003F11006DD6001F11005CC60043F294678
:104C10003346E7D12946139D334610F003000FD0E9
:104C20000F681E6801281F600E6009D04F685E681B
:104C300002285F604E6003D088689F6898608F602C
:104C400001200F9B079080EE011ABCF1010FCDF8F7
:104C500050C03BDB119803281ED30D9892ED002A1B
:104C600092ED013A92ED024A92ED035A22EE012AA8
:104C700023EE013A24EE014A02F1100125EE015A19
:104C800082ED002A82ED013A82ED024A82ED035A5A
:104C900004380A46E2D10A461AF0030016D092ED13
:104CA000002A012822EE012A82ED002A0ED092ED80
:104CB000012A022822EE012A82ED012A06D092ED75
:104CC000022A22EE012A82ED022A00BF0898CDE9CD
:104CD000099AB0F802A010990BFB0AF0BAF1000F84
:104CE00001EB800012903DD0AAF101000328129838
:104CF0001FD3129A2AF0030192ED002A92ED013A95
:104D000092ED024A92ED035A22EE012A23EE013A75
:104D100024EE014A02F1100025EE015A82ED002A2C
:104D200082ED013A82ED024A82ED035A04390246CD
:104D3000E2D11AF0030115D090ED002A012922EEEC
:104D4000012A80ED002A0DD090ED012A022922EEE1
:104D5000012A80ED012A05D090ED022A22EE012AD7
:104D600080ED022ABBF1000F00F0F2800BFB03F094
:104D700005EB8B0202EB800E0A98AAF1010900F004
:104D800003010AF003082AF0030000260C9003E058
:104D900001365E4500F0DC8006FB03B005EB8000C9
:104DA00090ED001A1498012862DB119F06FB03F0B6
:104DB000032F02EB800C03D27046B1BB58E000BF5A
:104DC0000D9D774697ED002A9CED003A22EE012AD0
:104DD00033EE422A8CED002A97ED012A9CED014A20
:104DE00022EE012A34EE422A8CED012A97ED022AA6
:104DF0009CED023A22EE012A33EE422A8CED022A81
:104E000097ED032A9CED034A22EE012A07F11000D8
:104E10000CF1100434EE422A8CED032A043D0746BF
:104E2000A446CFD1139DA44611B390ED002A9CED6A
:104E3000003A22EE012A33EE422A01298CED002AA3
:104E400016D090ED012A9CED013A22EE012A33EEB4
:104E5000422A02298CED012A0AD090ED022A9CED0B
:104E6000023A22EE012A33EE422A8CED022A00BFDA
:104E7000BAF1000F8CD0109F06FB0AF0B9F1030FB6
:104E800007EB800704D2129CB8F1000F39D17FE7FD
:104E90000C9D129890ED002A97ED003A22EE012A1F
:104EA00033EE422A87ED002A90ED012A97ED014A60
:104EB00022EE012A34EE422A87ED012A90ED022AE1
:104EC00097ED023A22EE012A33EE422A87ED022ABA
:104ED00090ED032A97ED034A22EE012A00F1100417
:104EE00007F1100334EE422A87ED032A043D2046E1
:104EF0001F46CFD11F460F9B139DB8F1000F3FF403
:104F000047AF94ED002A97ED003A22EE012A33EEE6
:104F1000422AB8F1010F87ED002A3FF439AF94ED32
:104F2000012A97ED013A22EE012A33EE422AB8F126
:104F3000020F87ED012A3FF42BAF94ED022A97ED83
:104F4000023A22EE012A33EE422A87ED022A1FE7B7
:104F50000E980B99149A8142BFF4FAAC0BFB03F044
:104F600005EB8B0E0EEB80090A980B9EAAF1010C43
:104F700000F003040AF003072AF0030807E000BF6B
:104F80000E9801360F9B139D86423FF4E1AC06FB61
:104F900003B0012A05EB800090ED001A62DB119945
:104FA00006FB03F003290EEB800003D24D46B4BB91
:104FB00058E000BF0D994B4693ED002A90ED003A62
:104FC00022EE012A33EE422A80ED002A93ED012AD7
:104FD00090ED014A22EE012A34EE422A80ED012AA8
:104FE00093ED022A90ED023A22EE012A33EE422A94
:104FF00080ED022A93ED032A90ED034A22EE012A66
:1050000003F1100500F1100234EE422A80ED032A6C
:1050100004392B461046CFD11046149A14B395ED9F
:10502000002A90ED003A22EE012A33EE422A012CAA
:1050300080ED002A16D095ED012A90ED013A22EE7E
:10504000012A33EE422A022C80ED012A0AD095ED86
:10505000022A90ED023A22EE012A33EE422A80ED36
:10506000022A00BFBAF1000F3FF48AAF109906FB85
:105070000AF0BCF1030F01EB800003D2129BC7BB07
:105080007EE700BF129D414695ED002A90ED003A63
:1050900022EE012A33EE422A80ED002A95ED012A04
:1050A00090ED014A22EE012A34EE422A80ED012AD7
:1050B00095ED022A90ED023A22EE012A33EE422AC1
:1050C00080ED022A95ED032A90ED034A22EE012A93
:1050D00005F1100300F1100234EE422A80ED032A9C
:1050E00004391D461046CFD11046149A002F3FF4C4
:1050F00047AF93ED002A90ED003A22EE012A33EEFD
:10510000422A012F80ED002A3FF43AAF93ED012AA5
:1051100090ED013A22EE012A33EE422A022F80ED71
:10512000012A3FF42DAF93ED022A90ED023A22EED0
:10513000012A33EE422A80ED022A21E79FED271A49
:10514000079801284FF000002DD0B5EE401AF1EE7F
:1051500010FA28D103FB0EF14FF0000041B3029A80
:105160004B42526802F10807002257F8086C76009B
:105170001FD19E18751C25D057F8045C6D0023D1F3
:10518000B51C23D03D686D0022D1033622D07E6845
:10519000760021D104329E1807F11007E5D10A46A6
:1051A00007E000BFFB2040B215B0BDE8F08F00BFA4
:1051B00000228A4208BF6FF0040040B215B0BDE87B
:1051C000F08F00BF0A46F4E70132F2E70A46F0E743
:1051D0000232EEE70A46ECE70332EAE7000000009D
:1051E0002DE9F04F8DB00346B3F8029050681A884D
:1051F000B1F802C0B9F1000F00F08A81D1F804E0E3
:105200000CF0010106910EEB8C01039101EB8C0176
:10521000029101EB8C010191A9F10301D3F804B0D3
:10522000A9F102030A91ACF101019FEDBE0AA9F1B7
:10523000010409F003064FEA8C070B9305910EF168
:10524000040100230491079009E000BF089B099A1C
:1052500007986344013A0BEB890B00F05E810699D5
:1052600000EB83080992089331B971466346BCF19B
:10527000010FEBD058E000BF5B4648467146B0EEE8
:10528000401AFEB19BED001A9EED002A012E22EE7F
:10529000011A07D103990BF104032046032C13D202
:1052A0003BE000BF03989BED012A90ED003A022EEF
:1052B00023EE022A32EE011A40F018810B9802996F
:1052C0000BF10803032C28D3A3F1100291ED002A5F
:1052D00092ED043A394492ED054A22EE032A91ED0B
:1052E000003A394492ED065A32EE011A23EE042AAE
:1052F00091ED003A394492ED076A32EE011A23EE3D
:10530000052A91ED003A32EE011A23EE062A1032F8
:1053100032EE011A04383944D8D1DDE90413A8EC7F
:10532000011ABCF1010F91D00BF1040A0BF1080036
:105330000BF10C020C920AE0023BACEB030188ED8E
:10534000011A08F108080EEB81013FF47FAF7EB12E
:105350009BED001A91ED002A012E22EE011A01EBBD
:105360008C010DD152462546032C29D251E000BFB5
:105370005A464D46B0EE401A032C21D249E000BFF8
:105380009AED002A91ED003A022E23EE022A32EE27
:10539000011A01EB8C0105D10B9D0246032C0FD2A3
:1053A00037E000BF90ED002A91ED003A0C9A23EE11
:1053B000022A0A9D32EE011A01EB8C01032C28D33C
:1053C000103A00BF91ED002A92ED043A394492ED73
:1053D000054A22EE032A91ED003A394492ED065A2D
:1053E00032EE011A23EE042A91ED003A394492ED8F
:1053F000076A32EE011A23EE052A91ED003A32EEE9
:10540000011A23EE062A103232EE011A043D394405
:10541000D8D1ACEB03010EEB810101F1040188ED61
:10542000001A7EB19BED001A91ED002A012E22EEAA
:10543000011A01EB8C010DD152462546032CFFF4D5
:105440007BAF29E05A464D46B0EE401A032CFFF4DC
:1054500073AF21E09AED002A91ED003A022E23EE7F
:10546000022A32EE011A01EB8C0105D10B9D024696
:10547000032CFFF461AF0FE090ED002A91ED003AAC
:105480000C9A23EE022A0A9D32EE011A01EB8C01DE
:10549000032CFFF451AF00BF103A00BF91ED002A7A
:1054A00092ED043A394492ED054A22EE032A91ED39
:1054B000003A394492ED065A32EE011A23EE042ADC
:1054C00091ED003A394492ED076A32EE011A23EE6B
:1054D000052A91ED003A32EE011A23EE062A103227
:1054E00032EE011A043D3944D8D125E702989BEDEC
:1054F000022A90ED003A0A9823EE022A01990BF154
:105500000C0332EE011A032CBFF4DEAE05E700BF38
:105510000CFB02F18900FAF7DAFF00200DB0BDE8BC
:10552000F08F00BF0000000080B5B0F800C04388D5
:1055300003FB0CF3002B5BD0D2F804E04968406811
:1055400013F00302A3F1010C21D090ED000A91EDBC
:10555000001A012A30EE410A8EED000A08D104300B
:1055600004310EF1040E6346BCF1030F40D311E089
:1055700090ED010A91ED011A022A30EE410A8EEDFA
:10558000010A37D1083008310EF1080E023BBCF198
:10559000030F2DD3A0F110021039AEF1100000BF9F
:1055A00092ED040A91ED041A043B30EE410A80EDBD
:1055B000040A92ED050A91ED051A30EE410A80EDDC
:1055C000050A92ED060A91ED061A30EE410A80EDC9
:1055D000060A92ED070A91ED071A02F1100230EE69
:1055E000410A01F1100180ED070A00F11000D7D146
:1055F000002080BD90ED020A91ED021A0C3030EED1
:10560000410A0C318EED020A0EF10C0E033BBCF187
:10561000030FEDD3BEE700002DE9F04F83B0B0F8E3
:1056200002E0BEF1000F00F0EE80B0F800C0D1F84B
:1056300004B045680246AEF10109BCF1010F0CF05F
:10564000010000901AD100240098002800F0DB80AF
:105650001EF003020BEB840100F0BB802B4653F8D5
:10566000040B012A086001EB8C0140F0A9801D4663
:10567000CE46B9F1030FC0F0C680ADE0AEF1020036
:105680002CF0010A0EF003060290AEF103004FEA7F
:105690008C070024019002E002345445D4D00BEB77
:1056A00084036EB1294651F8042B012E1A6003EBD6
:1056B0008C030BD10D464A46B9F1030F20D235E0D9
:1056C0007246B9F1030F1BD230E000BF6968022EA9
:1056D000196003EB8C0307D105F10801029A0D460E
:1056E000B9F1030F0CD221E0AA6805F10C011A6090
:1056F000019A03EB8C030D46B9F1030F16D300BFDB
:10570000296803EB070819606968043AD951A96848
:1057100008EB070348F8071005F11001ED6803EBEB
:105720000700DD5100EB07030D46E9D144F001000D
:105730000BEB800376B10D4655F8040B012E186073
:1057400003EB8C030CD129464A46B9F1030F21D251
:10575000A2E700BF7246B9F1030F1BD29CE700BF5E
:105760004868022E186003EB8C0307D101F108058D
:10577000029A2946B9F1030F0CD28DE7886801F12E
:105780000C05019A186003EB8C032946B9F1030F4D
:10579000FFF482AF0868DD1918604868043AD851F0
:1057A000886805EB0703E851C86801F1100503EBB1
:1057B0000701D85101EB07032946EBD16CE700BF85
:1057C0006868022A086001EB8C0121D10835AEF12E
:1057D000020EB9F1030F16D3A5F110024FEA8C03A4
:1057E00052F8100FCF1808605068BEF1040EC85070
:1057F000906807EB0301F850D06801EB0307C8502D
:1058000007EB0301ECD1002003B0BDE8F08F00BF2F
:10581000A8680C35086001EB8C01AEF1030EB9F1FC
:10582000030FF0D3D8E700009FED1D1A9FED1D2A4E
:1058300020EE010ABDEEC01A11EE100AB5EE400AC4
:10584000F1EE10FAB8BF013801EE100AB8EEC11A35
:1058500030EE410A20EE020ABDEEC01A11EE100A27
:10586000410A9FED112A4CF61C21C0F6000130EED2
:10587000021A1CBF0020B0EE410A01EB800101EECC
:10588000100A91ED002A91ED013AB8EE411A30EE7E
:10589000410A33EE421A21EE000A30EE020A704746
:1058A00083F9223E00000044000000C4B0B559B1A5
:1058B0004A1ED2B2032A4CF26A7201F0030CC0F6FF
:1058C000000205D200211CE00021C8B2B0BD00BF1B
:1058D00001F0FC0E0021002310F8044BC9B2614016
:1058E00010F8035C515C10F8024C6940515C10F8F0
:1058F000015C6140515C04336940515CDCB2744529
:10590000EAD1BCF1000F10D00378BCF1010F81EA9D
:105910000301515C09D04378BCF1020F81EA030115
:10592000515C02D080784840115CC8B2B0BD000024
:1059300046F20041C4F20001884218BF704780B5AA
:1059400040F2194002F096FB40F21940BDE8804059
:1059500002F080BBB0B546F20061C4F20001448998
:105960000A684FF0010C42F001020A60CB690CFAA0
:1059700004F5AB43CB61C3896FEA050C012B11D051
:105980002BBBCB6803EA0C03CB60B0F806E043887E
:1059900043EA0E434FEAC40E01EBC40423640346FA
:1059A0000EE000BFCB682B43CB60B0F800E043882B
:1059B00043EA0E434FEAC40E01EBC4042364831D83
:1059C00084881B8843EA044301EB0E0463648389E3
:1059D0004C68002B44EA050208BF04EA0C024A6046
:1059E00002894B69002A43EA050408BF03EA0C0454
:1059F0004C61007C012802D1C8692843C86108684D
:105A000020F001000860B0BD10B5026840F2040C3F
:105A100022F0020202600368CFF6FF7C43F001032C
:105A2000036063464268D20704BF42685FEAC272FD
:105A30000AD14268D20704BF42685FEAC27203D14A
:105A4000002B03F10403EDD14268D20704BF00200C
:105A500010BD0A784B7891F802E0CC78920763F396
:105A600019620EF00F0342EA034204F007034C8967
:105A700042EA0352631E6FF39F231A44C2610A79FC
:105A80000368012A23F0800308BF803303604A794A
:105A90000368012A23F0400308BF403303608A797A
:105AA0000368012A23F0200308BF20330360CA796A
:105AB0000368012A23F0100318BF103303600A7A29
:105AC0000368012A23F0080318BF08330360497AEA
:105AD0000268012922F0040208BF04320260016852
